:020000040000FA
:1000000098232020C5010000C9010000CB01000099
:1000100000000000000000000000000000000000E0
:10002000000000000000000000000000CD01000002
:100030000000000000000000CF010000752100005A
:10004000D301000091140000D3010000D30100008F
:10005000D3010000D3010000D3010000D301000050
:1000600000000000D3010000D301000000000000E8
:1000700000000000D3010000D3010000D301000004
:100080009D210000D301000081210000D301000068
:10009000D3010000D30100000000000000000000B8
:1000A000D3010000D30100000000000000000000A8
:1000B000D301000000000000D3010000D3010000C4
:1000C00000F002F800F052F812A030C808382418E6
:1000D0002D18AC4201D100F049F80FCCA246AB4636
:1000E0000CA730CF2D1B083F3F197C427F1E544484
:1000F0002D090426F441641EAC4201D300F036F809
:100100000126334200D0FB1A3343984754465D46DC
:10011000DFE700005C3500007C35000000000000D7
:10012000103A02D378C878C1FAD8520701D330C840
:1001300030C101D504680C60704700000000000069
:100140007047000000000000002300240025002666
:10015000103A01D378C1FBD8520700D330C100D583
:100160000B6070471FB51FBD10B510BD00F0A6FE97
:100170001146FFF7F7FF02F0D1FD00F0BEFE03B419
:10018000FFF7F2FF03BC00F011FF000070B5054659
:100190000C46164602E00FCC0FC5103E102EFAD2C8
:1001A000082E02D303CC03C5083E042E07D301CC8E
:1001B00001C5361F03E021782970641C6D1C761E72
:1001C000F9D270BD06480047FEE7FEE7FEE7FEE70E
:1001D000FEE7FEE703480449044A054B7047000068
:1001E000C10000009803202098232020981320208D
:1001F00098132020F8B5042A2CD3830712D00B784B
:10020000491C0370401C521E83070BD00B78491CFD
:100210000370401C521E830704D00B78491C0370E6
:10022000401C521E8B079B0F05D0C91ADF002023EC
:10023000DE1B08C90AE0FFF7A9FFF8BD1D4608C983
:10024000FD401C46B4402C4310C0121F042AF5D2B6
:10025000F308C91A521EF0D40B78491C0370401CD5
:10026000521EEAD40B78491C0370401C012AE4D4C6
:1002700009780170F8BD01E004C0091F0429FBD210
:100280008B0701D50280801CC90700D0027070471F
:1002900000290BD0C30702D00270401C491E02295E
:1002A00004D3830702D50280801C891EE3E7002265
:1002B000EEE70022DFE7704770477047F0B50C4665
:1002C000871A9C410D46861A9D4103D2C01BA1414D
:1002D000D21963410D0D1F0DC94EEC1BAE435CD00E
:1002E0007F057F0D0026002F51D02D05AC46A94378
:1002F000DD020123ED0A1B051D4320231B1B24D413
:100300001746E740381871412F46E740CC199D4009
:100310002818314661410C0D27D161449A4013D50C
:100320000023401C594152000ED1400840000122D8
:100330004B005205D34207D305204007C14201D5E7
:10034000B04900E0B0493046F0BD6B00002A00D053
:1003500001229A181F23203C1B1B01D5002302E019
:10036000E540281871410C0DD7D001242405091946
:10037000C407CD0740084908E40F28436144002C16
:10038000D5D00024401C61419A40D0D1CDE76A0508
:10039000520DD9D1C90FC907D5E79C4D4E00002891
:1003A00001D0012400E0002434195F00002A01D0AC
:1003B000012600E00026BE19954FAC420CD8AE4293
:1003C0000AD8B44206D001256D05EC42BCD01046D7
:1003D0001946F0BD9942FCD000203946F0BDF0B579
:1003E0001FB40C460F46811A9F412546861A9D412F
:1003F00006D20125ED076F40401ABC4152187B41DF
:10040000210D1E0D8D1BAC467D4D8D437ED0750597
:100410006D0D7CD00D05AE46AC431B031B0B794D17
:1004200052429D41202366469B1B14D31746F7403A
:10043000381800260090744160462F460741E419A1
:1004400000989D402818664116D4714671189A404C
:1004500025D5012320E093182A466A415200002B3B
:1004600000D0521C1E23203E9B1B002B61DD35411A
:10047000EE1728186641E8D5001876415B1C9A40B3
:1004800000D3401C4B05F3181524E34010D3002B78
:1004900052D071467118D30FC01802D3491C05B051
:1004A000F0BD0123DB079A42F9D140084000F6E78E
:1004B00001225205B21801D1002853D00123CC0AE1
:1004C000DB029943891E002A08D1020C03D0020CDA
:1004D0000004103902E00246002020390023550BA9
:1004E00005D112020823550B01D152010D23550CE1
:1004F00001D112011B1DD50C01D192009B1C150DC1
:1005000001D152005B1C2025EE1A01E02CE022E014
:100510000546F54015439840CA1AE10769181305C6
:10052000C918002ABBDA032040070818C10FC90701
:100530000FE071466118B2E7F107400808437110F7
:1005400071444A000CD001235B059A42A7D2C90F1F
:10055000C9070020A3E74905490D26D1002001E085
:100560000028F4D100219AE7284D6600002801D028
:10057000012100E0002171185F00002A01D001264E
:1005800000E00026BE19224FA94210D8AE420ED874
:10059000B14208D001256D05E94206D01946A802EE
:1005A000414010467BE79C4201D0214677E700207E
:1005B000394674E710B50C465C4005D50124E407C4
:1005C0006340FFF70CFF10BDFFF778FE10BD30B49D
:1005D0000C465C4004D50124E407634030BC6DE662
:1005E00030BCFCE670B50124E40761400D465D4077
:1005F00002D4FFF763FE70BD6340FFF7F0FE70BDED
:10060000FF0700000000F0FF0000F07F0000E0FFA7
:100610000000F87FF0B5F94D0C091E092C402E4062
:100620002F468BB0A7437DD0B543FCD0002E7AD0A7
:10063000002CFCD00D465D40ED0F2543AC1BFF2583
:10064000AD0464190894C502440DC9022143500D3C
:10065000DC0204430120C00701430443D20201919C
:10066000200C110C00958C46010423468B430A9103
:1006700061460904E24D8A430991010A7D44491902
:100680008039097805464D4301266D18F605751B1E
:100690006943C90C640B891C4C436418B5012C1BBD
:1006A000250C2E04B4434C434D43210C6918890991
:1006B0000591009DE90701D00121C90704912C464D
:1006C00001996708CD072F434C08059DE10B4D4369
:1006D0002D0C29466646754302950D4645432E4628
:1006E000029D7D1BB44100950D465D4301942C0C89
:1006F0002F040D465543AE462D0C3D430295039401
:100700007546049C2D04641B049406D2029C039D30
:10071000641C002675410395029401AC70CC009FC7
:100720007D1B01E03EE162E1B441090400950791BF
:1007300001940599A4086143090C0C464443650BD8
:10074000E7040C4666467443A646640B3C43039597
:1007500002947446049DE4042C1B049406D2029C6B
:10076000039D641C002675410395029401AC70CC76
:10077000009F7D1BB44101940C465C430095650FBE
:10078000E7000C465443A646640F3C43039502948D
:100790007446049DE4002C1B049406D2029C039D25
:1007A000641C002675410395029401AC70CC009F37
:1007B0007D1BB441AE09AF06049DC900AD092F43AE
:1007C000049DA406AD060495079D3443691807915E
:1007D000059DE10B4D432D0C294666467543029558
:1007E0000D4645432E46029D7D1BB44100950D46A6
:1007F0005D4301942C0C2F040D465543AE462D0C41
:100800003D43029503947546049C2D04641B049497
:1008100006D2029C039D641C002675410395029438
:1008200001AC70CC009F7D1BB44101948C050694F3
:10083000079C890A611800950791019C0599A408F5
:100840006143090C0D464543680BEF040D466446B1
:1008500065436C0B3C43049FED047D1BAC4602D208
:100860000025641C6841009E019D371B8541084698
:10087000584301950C46460FC5005443600F28436A
:100880006546E4002C1B02D20025401C6E41019DF0
:100890003F1AB5412846BD09800628438446A00971
:1008A000BF064E020699A40676180743079D00204E
:1008B00068410A99079019430020099B00906046FF
:1008C000FF1913434041E20F64003A43A446044633
:1008D000D71A8C41A04203D90120009020463A4605
:1008E000C70F941840416246D20F22436446640009
:1008F0000494009CBE466400D71AA446044602979E
:100900008C417746002F01D1A04204D96046401C9B
:100910008446029A2046C40FA64694184041049A81
:100920000546D20F224364466400D31A8D417146B6
:10093000002901D1A84202D928461A46641C104356
:100940000122002800D0164361020020079B89196C
:1009500004465C410223002C02DB49181346644123
:10096000089DCE0A2D145D194B056705E10A2C057B
:100970000D1908993E43C9076940002B08D09340E0
:1009800006D30022761C5141002B01D17608760057
:100990001C4A002D43DB154241D0AA433FD03046CC
:1009A0000BB0F0BD06180D464D41174C7642AC41D8
:1009B0001AD395181C465C41134A6D42A24113D3C9
:1009C000012252054C00D4420AD15C00D4420BD023
:1009D0004B4002D592021143E2E749004908DFE7A4
:1009E0005940C90FC90718E000200849D8E7054851
:1009F00001420DD10342F7D0F2E700000000FF07EB
:100A0000D02E00000000F07F0000E0FF0000F87F23
:100A1000114859400143C01241400020C0E7012362
:100A2000089A9B069A4205DC032252078918C90FCF
:100A3000C907B5E7052252078918074A1143D212A0
:100A40005140ADE770B515461C4602460B46284698
:100A50002146FFF7DFFD70BDFFFFFF7F30B5034686
:100A6000CA02400D1043164D164C0A1502D0204301
:100A7000002A06DBAA1A002A12DDD040FF2A0BDC6E
:100A800030BD5205520D01D140004008AA1A07D4CA
:100A9000D0404042FF2A01DD002030BD0028FCDDAF
:100AA0004A00002B01D0012000E000201018012294
:100AB0005205D042F0D8C817C043604030BD000096
:100AC0001E040000000000801F22030C02D10F2230
:100AD000000402D0030E03D004E00020014670475A
:100AE0000002083A030F01D10001121F830F01D148
:100AF0008000921E002801DB4000521E1205511892
:100B00004205C012411810467047C10FC90700D0F6
:100B10004042012292071143D6E701218907D3E71A
:100B2000F0B58B4C0F09254689B0BD437BD01D091C
:100B30002646AE43FAD00E465E402740F60F3E43AF
:100B4000254071D024012142FBD0FF24AD19A4041B
:100B50002D1B039501252D05DB02DB0AC9022B4362
:100B6000C90A29431E010901040F130F050121437E
:100B70001701880B820391432D098C46A90B1E4354
:100B80008A039543B30B9A0396433F09BA0B940328
:100B9000A74302962E467E430497B6464E19D719B0
:100BA0000C460196544305977E43371B7646BF1B80
:100BB0003601B646BE0B361900967646BC04371988
:100BC000009C01D3641C00946400002F01D0012616
:100BD0003443029E049F754366467E430496760026
:100BE00034196E0034190094029C019E1C1966434E
:100BF000751BAE46069465464519059C05956C43E4
:100C0000594375460891691A0191049E0146514362
:100C1000A41B0491611A009C0791E10605D06109AB
:100C20000122114302E072E06EE06109089D002795
:100C30002C0A2D066918049D7C412A0A2D06691884
:100C4000019D6241AC0DAD026D185441079A910DA2
:100C5000920255196141029A644658435443069BD7
:100C6000059A5A43121A131B9A0E9B015B187A417C
:100C7000010B0005C3185141220A200644195A41AC
:100C80009A4200D2491C01204002814203D315231D
:100C90000226F64302E014230326F6432020C51A59
:100CA000A9401746AF40DA400A4320460399D8408E
:100CB0000914731819055118039A3843D207514083
:100CC000AC4009D00122944006D30022401C51417F
:100CD000002C01D1400840001E4A934212D3012249
:100CE00003989206904207DB0520400709181A482E
:100CF0000143C012414004E0032040070818C10F1F
:100D0000C907002009B0F0BD0020F107FAE7051877
:100D10000C464C4111486D42A04115D394181A4617
:100D20005A410E48644290410ED301204A004005CA
:100D3000824209D35A00824206D35940C90F084A59
:100D4000C90700201143DDE700200649DAE700006B
:100D50000000FF07FE070000FFFFFF7F0000E0FF2D
:100D60000000F07F0000F87F10B501469E240002CD
:100D7000CA15A307002A02D01843002A04DBA21ACE
:100D8000002A0CDDD04010BD1206120E01D1400029
:100D90004008A21A03D4D04040420028F3DDFF22CD
:100DA00048001206904201D9002010BDC817C04368
:100DB000584010BD1F22030C02D10F2200041CD08A
:100DC000030E01D10002083A030F01D10001121FE6
:100DD000830F01D18000921E002801DB4000521ECB
:100DE000D2055118021251181922904004D3491CFF
:100DF000002801D14908490008467047C10FC907BA
:100E000000D04042012292071143D3E70121890714
:100E1000D0E70000F8B5264C4E00069DA6420AD841
:100E2000A64201D1002806D15E00A64203D8A64200
:100E30000AD1002A08D00D242404254233D02946A3
:100E4000002000F062F8F8BD0C461C4311D4994212
:100E500007D0C81A02D3EFF30080F8BDEFF300808B
:100E6000F8BD801A02D3EFF30080F8BDEFF30080E5
:100E7000F8BD09242407E5008B4207D0581A02D395
:100E8000EFF3008006E0EFF3008007E0101A03D3D1
:100E9000EFF30080A04303E0EFF30080A04328437A
:100EA00080F30088F8BD009500F046F8F8BD00001A
:100EB0000000E0FF00487047300020207546FFF733
:100EC000F9FFAE46050069465346C008C000854696
:100ED00018B020B5FFF77EF960BCB64600260027A3
:100EE000C0C5C0C5C0C5C0C5C0C5C0C5C0C5C0C5DA
:100EF000403D490849008D46704710B50446C0463C
:100F0000C0462046FFF73BF910BDC80212D5480382
:100F1000400F002804D0C803C04301218840704717
:100F2000EFF300800001000903210907084380F363
:100F3000008870470020704710B500200249029ACF
:100F400000F005F810BD00000000F87F704710B5F4
:100F50000C461107090F092904D00A290AD00829CB
:100F60000CD104E011460820FFF7CFFF06E0510640
:100F700006D501E0510601D50120C007214610BD6C
:100F8000D10607D501010909CC084907000E000662
:100F9000044309E0410F20024907000A0143200EE3
:100FA00000061D22D14101430846E7E70149182008
:100FB000ABBEFEE726000200B0B50A78032313405B
:100FC0000B4A84580B4D2540EB18A92424061B1905
:100FD0008350072212064B6813401124240205593E
:100FE0009543EA180251001949780161B0BDC04625
:100FF00008080000FCFFFF00811E091F00BFFCD293
:101000007047000070B50B01C318546895682543FC
:1010100094892C43156956692543D48924012C43AE
:1010200035012543092464021D51137852781A436F
:10103000BF231A4089004018024944589C43A21813
:10104000425070BD10110000B0B511221202835839
:101050000C4C1C400B894D881D438B792B430A4D4A
:101060001D402B1983508B88CC791C430978214370
:101070005D239B001940801842689A43891841609B
:10108000B0BDC04680CCFFFF7F33000010B5012209
:10109000120383180C785C604978815010BD000001
:1010A000F0B584B0012422022A4B196803929143BF
:1010B000196049490D686D04FCD5457E25409E693F
:1010C000A64374199C612024045D03252C40DE692D
:1010D000AE433419DC61204C256805262660466A3B
:1010E00037681F6276685E6207262E402660C469F4
:1010F0007F252D02DE69AE436406640C3419DC6181
:101100000768456882680092C66802690192426970
:1011100002929A69114C14403A07120B2D03ADB29A
:10112000AA183243009D2D072D0D1543019A154332
:10113000029A1543007E2843094A0240101998611B
:101140001868039A1043186008688005FCD504B03D
:10115000F0BDC04608010B40001340408D00F0FF79
:1011600072FF0F00F0B5124B1D46083D2E6801249A
:10117000A6432E600326360330401F68B743381855
:1011800018601868FF26B043C9B240181860286874
:101190002043286018682107002A06D008431860F9
:1011A0000D480168C905FCD5F0BD88431860F0BD45
:1011B00010010B4007498860074802689202FCD57D
:1011C000012212040B6813430B600168C906FCD5A9
:1011D0007047C04604010B4004020B40F0B57A4A48
:1011E00082183B4BC31808794E793A4D784C002E43
:1011F00023D0202804D00526F601002803D003E0E0
:10120000354E002800D18826576F2F403743576747
:10121000976F2F4037439767566B26405663966B00
:10122000264096630026566596658F26F6435F68CE
:1012300037405F609F6837409F608E79096820283B
:101240000BD0002819D1491E5160D76E2F4088213C
:101250000F43D7661746703719E0491E5160D16EAB
:1012600029401D4F3943D166116F29403943116719
:1012700001214907194D174609E049085160D76E09
:101280002F400521C9010F43D766174670373C68C8
:101290002C400C433C60D16A4D4C2140D162116B13
:1012A000214011630021D16411658F21C943D46F9E
:1012B0000C40D4671C680C401C600643BD203040C5
:1012C0001168074B0B40C018801C1060F0BDC04671
:1012D0008418000024493E0001040000FFFFFFCFF6
:1012E0004000FFCFB0B54A68364BC250364A80182E
:1012F0000A78222A58D8930001A4E3589F46C04692
:101300009F130000A91300009F130000A913000001
:10131000A9130000A9130000A9130000A9130000DD
:10132000A9130000A9130000A9130000A9130000CD
:10133000A9130000A9130000A9130000A9130000BD
:101340008D130000A91300008D130000A9130000E5
:10135000A9130000A9130000A9130000A91300009D
:10136000A9130000A9130000A9130000A91300008D
:10137000A9130000A9130000A9130000A91300007D
:101380008D130000A91300008D13000003231B0719
:1013900004689C4301235B07E318036004E0032314
:1013A0001B0704689C4304600B69C360CB68074C4F
:1013B0001C40C36A064D1D402B19C362097A1143B4
:1013C0000160B0BD08180000041800007777020023
:1013D0008888FDFF10B507239B04194092008018F0
:1013E000024A84589C436118815010BD3018000097
:1013F00010B5029CA400001911431943014A815001
:1014000010BDC0465018000092008018014A81505B
:101410007047C0461018000010B50122120383184F
:101420000C789C604B7883508978014A815010BDBC
:101430000C110000B0B51122120283580124A343FD
:1014400083500B888C781C438B882343094C1C40A9
:101450008358094D1D40631983508B79CC791C4307
:10146000097A21437E231940801842689A43511813
:101470004160B0BD18670000E798FDFF10B501227C
:10148000120383180C789C604978815010BD0000CD
:101490000E480146103909680A0409D489030FD59A
:1014A0000B490B680C490A685B0207D5521E06E01F
:1014B00007490B6807490A68DB03F7D5521C0A6025
:1014C0000521C90302680A430260704748100A40B8
:1014D00080130A40340120203C012020A821405CD8
:1014E000704780B50346AB20185C002807D0103346
:1014F000102208461946FEF77DFE012080BD00201F
:1015000080BD0000F0B581B01E491F480860012170
:10151000CE05CE480660192005011C4F3868000230
:101520000DD5009132242846FFF766FD641E386809
:10153000304201D02006F6D12006009C0DD0802438
:10154000C24F3C602846FFF757FD3C6181200D49A2
:1015500008603E603E64002410E081200949086074
:10156000BA4F3E603E64802038613E613860284654
:10157000FFF742FD3E602846FFF73EFD204601B0E2
:10158000F0BDC046CC8042408100040080330A4058
:10159000F0B581B000930126F302AC4D2B61B60388
:1015A0002E61AB4F2A243C633C68E40608D53C68B6
:1015B000E40605D53C68E40602D53C68E406F3D4AD
:1015C0002E602B602E61040AE4B23C633C68E406A2
:1015D00008D53C68E40605D53C68E40602D53C68BD
:1015E000E406F3D42E602E61C0B238633868C006BA
:1015F00008D53868C00605D53868C00602D53868F1
:10160000C006F3D42E602E61100AC0B23863386869
:10161000C00608D53868C00605D53868C00602D5AA
:101620003868C006F3D42E602E61D0B238633868B3
:10163000C00608D53868C00605D53868C00602D58A
:101640003868C006F3D42E602B612E612B203863DE
:101650003868C00608D53868C00605D53868C006A1
:1016600002D53868C006F3D42E602B602E6123317A
:10167000080AC0B238633868C00608D53868C006A2
:1016800005D53868C00602D53868C006F3D42E6088
:101690002E61C8B238633868C00608D53868C006FD
:1016A00005D53868C00602D53868C006F3D42E6068
:1016B0002E6100992331080AC0B238633868C00629
:1016C00008D53868C00605D53868C00602D5386820
:1016D000C006F3D42E602E61C8B238633868C006E5
:1016E00008D53868C00605D53868C00602D5386800
:1016F000C006F3D42E602B612E612C20386338682D
:10170000C00608D53868C00605D53868C00602D5B9
:101710003868C006F3D42E602B6001B0F0BDC0461F
:10172000F0B589B01C4615460F46521E5B1E079049
:10173000FFF72EFF0694A74200D385E00E98079A84
:10174000AB1A01210B4005936B420493531C019388
:10175000D2430392C2B28903000AC3B2ED483C4CA3
:10176000029504E0089F7F1C069EB7426CD0089744
:10177000079EB542F6D9059E002E079F1ED0016137
:1017800023632768FF0608D52768FF0605D5276865
:10179000FF0602D52768FF06F3D4016001612263CA
:1017A0002768FF0608D52768FF0605D52768FF06C6
:1017B00002D52768FF06F3D40160019F049E039DB4
:1017C000B542029D04D1CDE70160BF1CAF42C9D034
:1017D000016123632668F60608D52668F60605D556
:1017E0002668F60602D52668F606F3D40160016184
:1017F00022632668F60608D52668F60605D526680B
:10180000F60602D52668F606F3D40160016123636B
:101810002668F60608D52668F60605D52668F60673
:1018200002D52668F606F3D40160016122632668BA
:10183000F606C9D52668F606C6D52668F606C3D5C7
:101840002668F606F3D4BFE709B0F0BD90320A402F
:1018500010B14640B0B51F48006800F05DF9D348AC
:101860000068C1174840401A1B490A684243D01714
:10187000800D101880125A21081A18490860184B58
:101880001B78DC0705D1D1483C2202602820086083
:101890000DE05BB2002B06D4282008603B21C94331
:1018A000CA4A116003E033239B029A42EEDAC74929
:1018B00009680A180B4D2A60411A0B48016001247F
:1018C0002046224601F082FB29680220224601F0D0
:1018D0007DFBB0BD2401202000002020200120201D
:1018E000E40020201C01202018012020F0B58BB03E
:1018F000049203910446603040252946FEF7D9FC46
:10190000204602952946FEF7D4FCA02000210A912A
:1019100021500994A03456480121089109026060C1
:101920000594A1600F20C64308E006988266C16650
:101930000A9810300A90361D00D193E0039885195B
:10194000298A04988719388A884201D20A4603E016
:10195000288239822A8A0846510008180324214621
:1019600001F010FC099907968E1950217052288AAF
:10197000398A49000818214601F004FC60217052A0
:10198000388A02997052288A30863C8A288A021B3B
:101990005142514102462243089B00D00B4600228F
:1019A000002B114613D1FFF7B8F80690019120469D
:1019B000FFF7B3F802460B4606980199FEF707FEBB
:1019C00002460B46059903C9FEF724FE0246099814
:1019D0000A9BC3181A665966698A788A88420693F0
:1019E00001D20A4603E0688279826A8A0846510079
:1019F00008180324214601F0C5FB52217052688A61
:101A0000798A49000818214601F0BCFB6221705216
:101A1000788A42217052688A70867C8A688A021BA2
:101A20005142514102462243089B00D00B460022FE
:101A3000002B1146079E00D077E7FFF76EF80546AA
:101A40000F462046FFF769F802460B4628463946FE
:101A5000FEF7BDFD02460B46059903C9FEF7DAFD08
:101A6000024662E701200599C8720BB0F0BDC0467E
:101A70000000B040F0B585B0029005460E3501205B
:101A800081030491C104039104050026214F0CE059
:101A9000039838610A2000F0B1FC282000F09CFB7C
:101AA0002880AD1E761C082E15D0F00708D13C60AA
:101AB000B00708D50498164908617007E8D407E014
:101AC0003C61B007F6D40498114908607007DFD470
:101AD00003983860DEE7029C2146403122465032AE
:101AE0002346A833204600F0BDFBA0202058214605
:101AF000A031496800900191214660312246303280
:101B000023461033204601F049F905B0F0BDC04628
:101B100090120A4090320A4010B5044623480068EB
:101B200023490860FFF76AF90146204601F0A8FC46
:101B3000FFF71AF91F4908601F490A6808601F4B20
:101B400019680918052900DB05210424E443A14292
:101B500000DC214619601A4B1B684343DC17A40DB7
:101B60001B199B12801A174A12684243D017800D26
:101B700010188012C018144A12684A43D117890DF0
:101B80005118891243181148036011490C68A34287
:101B9000194600DB21466242A34202DC914200DB8F
:101BA00010BD914200DC1146016010BDE002202012
:101BB0002C012020E800202000012020F800202017
:101BC0000800202004002020FC00202014012020F8
:101BD0001C002020B0B50124A0071249FFF7ECF942
:101BE0001148C16F114A0A4061045118C167104978
:101BF0000A68104B13400B6000228A670A22CA60F1
:101C000022020B6813430B601F23DB020D689D4308
:101C1000E302EB180B60016811430160816F2143FF
:101C20008167B0BDD035000088100040FEFFECFF9A
:101C300008110040F8FFE0E080B504482821016069
:101C400003480021034AFFF7DDF980BD0CB2424092
:101C500000A04240D835000080B5FFF7EDFF80BD01
:101C600010B525490020086048608422CA612348D5
:101C700010230360CA60022202608222CA62204AE4
:101C80000A6383220A64CA6381224A660A668A60FA
:101C9000CA654A648A644A651A4B1A631A4CCC6650
:101CA0000C674C679C608A639A61DA608A661A6086
:101CB00007210903154A1160116301218907144A9C
:101CC00013680B4313601169124B0B431361052119
:101CD000C903114A136A0B43136213680B43136061
:101CE000014630390D4A0A60014640390C4A0A6003
:101CF0000C49016010BDC04628804240D0320A40E5
:101D000082000400B480424081000C00A0120A400E
:101D100090130A400510000028100A40014C1904D5
:101D200080008000814C9904F0B581B0194C1A49AB
:101D30002046FFF771FB19492046FFF74FFA0025AF
:101D40000095204629462A462B46FFF751FB2046A0
:101D500029462A46FFF73EFB114E204631462A46C9
:101D6000FFF752FB01270097204629462A462B46BB
:101D7000FFF73EFB204629463A46FFF72BFB20465D
:101D800031463A46FFF740FB064887600321016071
:101D900001B0F0BD00208640F0350000F4350000B1
:101DA000102700000031864010B50C4C0C4920462D
:101DB000FFF76CF90B492046FFF746F90A484168DE
:101DC0000A4A0A404260816812220A432D218A434E
:101DD0008260016801220A43026010BD00A04640F3
:101DE000FC350000FE35000004B1464000FCFFFF5A
:101DF00070B51848002404600F200002164D2968B1
:101E0000814301225002081828600320C1432B1F80
:101E10001E680E401E6069689143696011026B681C
:101E20008B436B6000030A21FFF79CF90B48FFF717
:101E300037F928681021014320208143296020467A
:101E4000FFF7B8F9FF20000205490A6882430A60DB
:101E500070BDC04608030B4004010B40083600006B
:101E600000E400E0084809494160FF210906084AEA
:101E700013688B4303218907591811600021816081
:101E8000072101607047C04610E000E07F38010084
:101E900020ED00E010B5084C08492046FFF7BCFAD9
:101EA00007492046FFF71EFA064801680122114340
:101EB00001600548026010BD000086403036000019
:101EC00034360000281086400811864010B50C4CAE
:101ED0000C492046FFF7A0FA0B492046FFF702FA0B
:101EE0000A48016801221143016009480168C023C2
:101EF0000B433F218B4303600648026010BDC04680
:101F000000400840483600004C3600002850084089
:101F100010E400E00851084010B5124C1249204668
:101F2000FFF7ACFA11492046FFF784FA0320C103FA
:101F30000F4802688A43026001690E4A0A408232F1
:101F4000026141690D220A4332218A43426141689C
:101F500001221140436893435918416001681143BD
:101F6000016010BD00801040603600006236000045
:101F7000009110400000FFFF80B500F025F8FFF74A
:101F80006FFEFFF735FFFFF7CFFEFFF79FFFFFF76D
:101F900081FFFFF7C1FFFFF707FFFFF71BFEFFF70A
:101FA0005BFEFFF75FFFB820044900220A54044992
:101FB0000A54242003490A5480BDC046240220202C
:101FC00040012020FC012020F0B581B010481149CB
:101FD000416011484160114B5960114C6160114DD5
:101FE0006960114E7160114F79601148416011496B
:101FF000074A1160084A1160196021602960316048
:10200000396001601020FEF7F7FF01B0F0BDC04657
:1020100000080A40030000B100280A40002886405A
:1020200000480840000886400088104000A846404C
:102030000008004001000026F0B581B04B4A812124
:1020400011600121CC054A4E346034648027376129
:10205000009040B2002801D4346100E03460A02038
:10206000FEF7CAFF3760192005012846FEF7C4FFB6
:1020700037612846FEF7C0FF0098400601D434615E
:1020800000E03460A020FEF7B7FF37602846FEF777
:10209000B3FF37612846FEF7AFFF0098800601D4F2
:1020A000346100E03460A020FEF7A6FF37602846C8
:1020B000FEF7A2FF37612846FEF79EFF0098C00694
:1020C00001D4346100E03460A020FEF795FF376052
:1020D0002846FEF791FF37612846FEF78DFF0098EE
:1020E000000701D4346100E03460A020FEF784FFD3
:1020F00037602846FEF780FF37612846FEF77CFFF1
:102100000098400701D4346100E03460A020FEF75D
:1021100073FF37602846FEF76FFF37612846FEF7EA
:102120006BFF0098800701D4346100E03460A02088
:10213000FEF762FF37602846FEF75EFF37612846EC
:10214000FEF75AFF0098C00701D1346100E0346007
:10215000A020FEF751FF37602846FEF74DFF37619C
:102160002846FEF749FF01B0F0BDC046CC80424092
:1021700090320A4017480168491C01607047C04608
:1021800080B505480068C0B2012803D100F0E6F828
:10219000FFF760FB80BDC0462010864080B5044834
:1021A0000068C0B2012801D100F042F980BDC046EC
:1021B0002050084007490A6810180A68824208D26D
:1021C0000A68824205D20A68824202D20A688242C2
:1021D000F3D3704728012020B0B50446204D50218C
:1021E0002846FEF766F860004019801E30BF01885F
:1021F00000290BD130BF0188002907D130BF0188E9
:10220000002903D130BF01880029EFD0002C22D053
:102210000022114610465200AA5A801801220A4391
:10222000D2B2A24218D25200AA5A801802220A43FD
:10223000D2B2A24210D25200AA5A801803220A43F4
:10224000D2B2A24208D25200AA5A8018091DCAB2BC
:10225000A242E0D300E00020214600F093FFB0BD91
:1022600090002020B0B504880D88AC4203D91D78B9
:1022700001242C4305E01588AC4203D21C780125CB
:10228000AC431C7044884D88AC4203D91D780224AD
:102290002C4305E05588AC4203D21C780225AC43A0
:1022A0001C7084888D88AC4203D91D7804242C438B
:1022B00005E09588AC4203D21C780425AC431C7021
:1022C000C488CD88AC4203D91D7808242C4305E08E
:1022D000D588AC4203D21C780825AC431C70048915
:1022E0000D89AC4203D91D7810242C4305E01589D3
:1022F000AC4203D21C781025AC431C7044894D8934
:10230000AC4203D91D7820242C4305E05589AC420A
:1023100003D21C782025AC431C7084898D89AC4283
:1023200003D91D7840242C4305E09589AC4203D2A3
:102330001C784025AC431C70C089C989884204D9E7
:102340007F20C1431878084305E0D189884203D231
:1023500019787F2008401870B0BD0000F0B583B038
:10236000214D2846FFF786FB204C28462146FFF7E3
:10237000B8F82846FFF7B2F81D490870A6882088EB
:1023800002908019E58840196188009140182789DA
:10239000C01961894218A0891218E4891319012211
:1023A000D2030193934202D11248006818E0711AD7
:1023B0000326B6024E43E91B89027118009B181AC6
:1023C00005239B024343C8180299091B07239B025C
:1023D0004B43C0180199511A00F0F6FE05490860F8
:1023E0000549086003B0F0BDE80220200401202068
:1023F000E4002020E0002020E002202081B05021D5
:10240000414300910098411E009100280ED0009891
:10241000411E0091002809D00098411E009100281B
:1024200004D00098411E00910028EBD101B0704704
:1024300005480168054A116005490A68054B1A609C
:10244000002202600A607047340120203001202001
:102450003C01202038012020F0B587B006AA25488D
:10246000108050256921009102242846234600F05F
:1024700027FE214F3846FEF7BFFD05AA0420108035
:10248000012628463146234600F01AFE3846FEF75C
:10249000B3FD04AA0027178028463946234600F0DA
:1024A0000FFE1548FEF7A8FD03AA12481080284623
:1024B0000099234600F004FE0F48FEF79DFD02AA96
:1024C0000820108028463146234600F0F9FD0A48CE
:1024D000FEF792FD01AA178028463946234600F0F0
:1024E000EFFD0548FEF788FD0448076047608760F8
:1024F00007B0F0BD88B5FFFF0024F400EC002020F9
:10250000F0B585B00126B502094C25610948FEF7F2
:1025100073FD25600848FEF76FFD3346F50225611F
:10252000B6032661054F11200390386308E0C046CA
:1025300090320A40009F240000127A0010B14640F9
:102540003868C00608D53868C00605D53868C006A2
:1025500002D53868C006F3D426602560256126615F
:102560003620029038633868C00608D53868C0063F
:1025700005D53868C00602D53868C006F3D4266091
:1025800025602661702038633868C00608D5386831
:10259000C00605D53868C00602D53868C006F3D431
:1025A0002660256126613A2038633868C00608D560
:1025B0003868C00605D53868C00602D53868C00638
:1025C000F3D42660256026610520049038633868BE
:1025D000C00608D53868C00605D53868C00602D5DB
:1025E0003868C006F3D4266025612661B2203863BE
:1025F0003868C00608D53868C00605D53868C006F2
:1026000002D53868C006F3D42660256026610C2008
:1026100038633968C90608D53968C90605D53968E7
:10262000C90602D53968C906F3D426602661386325
:102630003868C00608D53868C00605D53868C006B1
:1026400002D53868C006F3D42660266100213963BC
:102650003868C00608D53868C00605D53868C00691
:1026600002D53868C006F3D42660266133223A6367
:102670003868C00608D53868C00605D53868C00671
:1026800002D53868C006F3D4266026613A633868FC
:10269000C00608D53868C00605D53868C00602D51A
:1026A0003868C006F3D4266025612661B7203863F8
:1026B0003868C00608D53868C00605D53868C00631
:1026C00002D53868C006F3D426602560266135201F
:1026D00038633868C00608D53868C00605D538683C
:1026E000C00602D53868C006F3D42660256126618D
:1026F000BB2038633868C00608D53868C00605D5E1
:102700003868C00602D53868C006F3D42660256054
:1027100026611A2038633868C00608D53868C006B4
:1027200005D53868C00602D53868C006F3D42660DF
:1027300025612661C02038633868C00608D538682E
:10274000C00605D53868C00602D53868C006F3D47F
:102750002660256026612C2038633868C00608D5BD
:102760003868C00605D53868C00602D53868C00686
:10277000F3D4266025612661C22038633868C0061C
:1027800008D53868C00605D53868C00602D538684F
:10279000C006F3D42660256026613B633868C00616
:1027A00008D53868C00605D53868C00602D538682F
:1027B000C006F3D4266025612661C32038633868DB
:1027C000C00608D53868C00605D53868C00602D5E9
:1027D0003868C006F3D42660256026610B2000907F
:1027E00038633868C00608D53868C00605D538682B
:1027F000C00602D53868C006F3D42660256126617C
:10280000C42038633868C00608D53868C00605D5C6
:102810003868C00602D53868C006F3D42660256043
:102820002661202038633868C00608D53868C0069D
:1028300005D53868C00602D53868C006F3D42660CE
:1028400025612661C62038633868C00608D5386817
:10285000C00605D53868C00602D53868C006F3D46E
:102860002660256026610F2038633868C00608D5C9
:102870003868C00605D53868C00602D53868C00675
:10288000F3D4266025612661D02038633868C006FD
:1028900008D53868C00605D53868C00602D538683E
:1028A000C006F3D4266025602661A420386338680A
:1028B000C00608D53868C00605D53868C00602D5F8
:1028C0003868C006F3D426602661A12038633868D2
:1028D000C00608D53868C00605D53868C00602D5D8
:1028E0003868C006F3D4266025612661212038634C
:1028F0003868C00608D53868C00605D53868C006EF
:1029000002D53868C006F3D42660256025612661AB
:10291000E02038633868C00608D53868C00605D599
:102920003868C00602D53868C006F3D42660256032
:102930002661F0233B633868C00608D53868C006B6
:1029400005D53868C00602D53868C006F3D42660BD
:10295000266139633868C00608D53868C00605D5D1
:102960003868C00602D53868C006F3D426602661F0
:10297000042038633968C90608D53968C90605D501
:102980003968C90602D53968C906F3D426602661BC
:1029900038633968C90608D53968C90605D5396864
:1029A000C90602D53968C906F3D4266026613863A2
:1029B0003868C00608D53868C00605D53868C0062E
:1029C00002D53868C006F3D42660266104983863BF
:1029D0003868C00608D53868C00605D53868C0060E
:1029E00002D53868C006F3D42660266129200490F9
:1029F00038633868C00608D53868C00605D5386819
:102A0000C00602D53868C006F3D4266026613A6352
:102A10003868C00608D53868C00605D53868C006CD
:102A200002D53868C006F3D4266026613E2139639A
:102A30003868C00608D53868C00605D53868C006AD
:102A400002D53868C006F3D401922660266138208A
:102A500038633868C00608D53868C00605D53868B8
:102A6000C00602D53868C006F3D42660266112205D
:102A700038633A68D20608D53A68D20605D53A686E
:102A8000D20602D53A68D206F3D4266026613863AE
:102A90003868C00608D53868C00605D53868C0064D
:102AA00002D53868C006F3D4266026612820386332
:102AB0003A68D20608D53A68D20605D53A68D206F1
:102AC00002D53A68D206F3D42660266130223A63F2
:102AD0003A68D20608D53A68D20605D53A68D206D1
:102AE00002D53A68D206F3D4266025612661E12238
:102AF0003A633A68D20608D53A68D20605D53A68EC
:102B0000D20602D53A68D206F3D426602560266143
:102B10003B633A68D20608D53A68D20605D53A68CA
:102B2000D20602D53A68D206F3D42660266107237E
:102B30003B633A68D20608D53A68D20605D53A68AA
:102B4000D20602D53A68D206F3D4266026610A225C
:102B50003A633A68D20608D53A68D20605D53A688B
:102B6000D20602D53A68D206F3D4266026610D2239
:102B70003A633A68D20608D53A68D20605D53A686B
:102B8000D20602D53A68D206F3D426602661009AAE
:102B90003A633A68D20608D53A68D20605D53A684B
:102BA000D20602D53A68D206F3D4266026613B638A
:102BB0003A68D20608D53A68D20605D53A68D206F0
:102BC00002D53A68D206F3D42660266138633868A5
:102BD000C00608D53868C00605D53868C00602D5D5
:102BE0003868C006F3D426602661019838633868D7
:102BF000C00608D53868C00605D53868C00602D5B5
:102C00003868C006F3D42660266139633868C00688
:102C100008D53868C00605D53868C00602D53868BA
:102C2000C006F3D426602661029838633868C0066F
:102C300008D53868C00605D53868C00602D538689A
:102C4000C006F3D426602661142038633968C906AB
:102C500008D53968C90605D53968C90602D5396865
:102C6000C906F3D42660266138633868C00608D5E3
:102C70003868C00605D53868C00602D53868C00671
:102C8000F3D426602661049838633868C00608D5F6
:102C90003868C00605D53868C00602D53868C00651
:102CA000F3D426602661322038633868C00608D520
:102CB0003868C00605D53868C00602D53868C00631
:102CC000F3D4266025612661039838633868C0060E
:102CD00008D53868C00605D53868C00602D53868FA
:102CE000C006F3D4266025600B48FEF785F9256100
:102CF0002661049838633868C00608D53868C0066D
:102D000005D53868C00602D53868C006F3D42660F9
:102D1000256005B0F0BDC046007C920082B0FFF790
:102D20002BF9FFF799FBFFF7EBFB01208506DB4E44
:102D300035611F2100910402224640320020AA235F
:102D40000146FEF7EDFC356000F0ACF90C480D498A
:102D50000D4AFEF7CBFD0D480D4941600D498160DC
:102D6000016802220A4302600B48016821430160A6
:102D70006420FFF71FFA0120FFF71CFAFBE7C046AB
:102D8000E8022020200020200C00202000B2424039
:102D9000801200409000202004110040F0B585B062
:102DA000039314460D4606460A980B9F0090394639
:102DB000FDF754FE049002942088318881420195E9
:102DC00001D200250AE0081AFDF79FFE02460B46D5
:102DD00003CDFDF7A5FEFDF741FE05462846FDF7AC
:102DE0009CFE009C22463B4600F0C7FA002804984F
:102DF00000D1284603990880029840887188814252
:102E000001D200250CE0081AFDF77FFE02460B46B2
:102E100001998868C968FDF783FEFDF71FFE054626
:102E20002846FDF77AFE22463B4600F0A6FA002827
:102E3000049800D128460399488002988088B18878
:102E4000814201D200250CE0081AFDF75EFE024621
:102E50000B46019908694969FDF762FEFDF7FEFD21
:102E600005462846FDF759FE22463B4600F085FA06
:102E70000028049800D12846039988800298C088C9
:102E8000F188814201D200250CE0081AFDF73DFED1
:102E900002460B4601998869C969FDF741FEFDF7B5
:102EA000DDFD05462846FDF738FE22463B4600F08C
:102EB00064FA0028049800D128460399C880029833
:102EC00000893189814201D200250CE0081AFDF702
:102ED0001CFE02460B460199086A496AFDF720FE6E
:102EE000FDF7BCFD05462846FDF717FE22463B468A
:102EF00000F043FA0028049800D12846039908817D
:102F0000029840897189814201D200250CE0081A9B
:102F1000FDF7FBFD02460B460199886AC96AFDF779
:102F2000FFFDFDF79BFD05462846FDF7F6FD224611
:102F30003B4600F022FA0028049800D12846039965
:102F4000488102988089B189814201D200250CE034
:102F5000081AFDF7DAFD02460B460199086B496B2A
:102F6000FDF7DEFDFDF77AFD05462846FDF7D5FDA8
:102F700022463B4600F001FA0028049800D128467A
:102F8000039988810298C089F189814201D2002485
:102F90000CE0081AFDF7B9FD02460B460199886B53
:102FA000C96BFDF7BDFDFDF759FD04462046FDF751
:102FB000B4FD009A3B4600F0E0F9002800D10494EB
:102FC00003980499C18105B0F0BD000070B51446A6
:102FD00002281AD001285BD12E48814200DB01462D
:102FE000C81781432C4D00222846FEF70DFA032C0A
:102FF0004ED8C0467C4424796400A744011E252C89
:1030000001204103264A116122E02248814200DB6F
:103010000146C8178143204E012530462A46FEF757
:10302000F3F9032C34D8C0467C4424796400A744C7
:10303000011C2126524805611EE001200103184AA7
:1030400011614003106070BD01204103144A1160FA
:103050000003106070BD01204103114A116100039B
:103060001061002128460A4610E0280444490861FE
:103070000D6070BD424805602904016070BD404884
:10308000056129040161002130462A46FEF7BCF99A
:1030900070BDC0460F2700000020864090320A40D5
:1030A00090120A4001200104034A1160034B196089
:1030B000800410601860704780E200E000E100E0EA
:1030C000F0B587B004931646059106902B488121F0
:1030D0000191016001200390C40529480460046443
:1030E0008025056104600560192007013846FDF759
:1030F00083FF234804613846FDF77EFF0295204890
:1031000005613D463846FDF777FF06984006000EFC
:10311000FEF792FF0027FEF7F5F9002809D12846AF
:10312000049D06900598FEF787FFFEF7EBF900284F
:1031300002D0384607B0F0BD002D09D03078FEF738
:103140007BFFFEF7DFF90028F3D1761C6D1EF5D169
:1031500001980A4908600A4D2C602C640298286185
:103160002C612860069E3046FDF746FF2C603046F5
:10317000FDF742FF039807B0F0BDC046CC80424047
:1031800090320A4043088B421AD3002203098B4233
:1031900079D3030A8B425ED3030B8B4242D3030CD9
:1031A0008B4227D30902FF2212BA030C8B4202D3AF
:1031B0001212090203D0030B8B4233D31AE0D3E07F
:1031C000411A8041401C704703460B4371D44308A9
:1031D0008B42F5D3002203098B4254D3030A8B425E
:1031E00039D3030B8B421DD3030C8B4202D394467D
:1031F0006EE0090AC30B8B4201D3CB03C01A5241C4
:10320000830B8B4201D38B03C01A5241430B8B4279
:1032100001D34B03C01A5241030B8B4201D30B0362
:10322000C01A5241C30A8B4201D3CB02C01A524189
:10323000830A8B4201D38B02C01A5241430A8B424C
:1032400001D34B02C01A5241030A8B4201D30B0235
:10325000C01A5241CDD2C3098B4201D3CB01C01A4F
:10326000524183098B4201D38B01C01A5241430959
:103270008B4201D34B01C01A524103098B4201D347
:103280000B01C01A5241C3088B4201D3CB00C01AB4
:10329000524183088B4201D38B00C01A524143082C
:1032A0008B4201D34B00C01A5241411A52411000C7
:1032B0007047CA0F00D04942031000D34042534028
:1032C00000229C4603098B422DD3030A8B4212D362
:1032D0008901FC2212BA030A8B420CD38901921194
:1032E0008B4208D3890192118B4204D3890137D0D4
:1032F000921100E08909C3098B4201D3CB01C01AA6
:10330000524183098B4201D38B01C01A52414309B8
:103310008B4201D34B01C01A524103098B4201D3A6
:103320000B01C01A5241C3088B4201D3CB00C01A13
:10333000524183088B4201D38B00C01A5241D9D22B
:1033400043088B4201D34B00C01A5241411A00D2AC
:1033500001465241104663465B1000D3404270471D
:1033600063465B1000D3404201B50021004201D00A
:10337000C9430846C046C04602BD10B500F008F873
:10338000EFF300804000800F012800D0002010BD26
:1033900070B501252D050C001C4310D4EC4206D459
:1033A000AC420AD4994200D070BD904270BDE9424F
:1033B00017D4EB4215D4994270BD894270BDEC42DE
:1033C00006D5AC42F9D58B4200D070BD824270BDAB
:1033D0006D004C00EC4204D25C00EC4201D28B4206
:1033E00070BD034C30B4FDF715FD30BC70BD00BF9F
:1033F0001900130470B50125ED0704004C4020D4DA
:10340000441A01D2001B0919C60D4B00F2B2FF2A63
:1034100029D01B0E2CD000020C0228432C43D31AB7
:10342000DC40051910D2280A02D3401C6D0611D0C9
:10343000761EF6058019FF2A00DA70BDC00DC005A2
:1034400070BD694000F022F801200543C541521CBF
:10345000761CE8E764089C40C90161408900E7D117
:103460000124A043E4E71B0E440200D0034870BDD2
:10347000002AFCD1C00FC00770BD00BF0000C07F94
:1034800070B50125ED0704004C4022D4441A02D245
:103490006C40001B0919C60D4B00F2B2FF2A4BD03D
:1034A0001B0E50D000020C02A8432C43D31ADC4060
:1034B000051B05D5AD0019D36D08761E521E37D0F9
:1034C000F605280A01D2801970BD70416D0603D03F
:1034D00070BD6940FFF794FF9C40090261404900BC
:1034E00001D0401E70BD0124A04370BD6D081DD0E9
:1034F00001202B0C01D12D0410302B0E01D12D02F7
:1035000008302B0F01D12D01001DAB0F01D1AD00F3
:10351000801CEB0F01D16D00401C361A121A6D0091
:10352000680AF5054019012A02DB70BD002070BD54
:10353000C036300AC00770BD1B0E440201D1FF2BFC
:1035400000D1024870BD002AF0D070BD0000C07FDD
:1035500080807F7E7D7C7B7A7978777676757473D0
:10356000727171706F6E6E6D6C6C6B6A6A6968688F
:10357000676666656464636362616160605F5F5E25
:103580005E5D5D5C5C5B5B5A5A595958585757569B
:103590005655555554545353525252515150505000
:1035A0004F4F4F4E4E4D4D4D4C4C4C4B4B4B4A4A52
:1035B0004A49494948484847474747464646454596
:1035C00045444444444343434342424242414141CF
:1035D00000060000000000031700000000000020AB
:1035E00000000000000100010000000000000300D6
:1035F000080000001027000000000100080004007F
:1036000000000000071000000100000000000000A2
:10361000000000000000000000000000100000009A
:103620000001000003000000000000003400C4415D
:1036300008076300020000004FC300000100000003
:103640000000000000000000080709000200000060
:103650000F27000001000000000000000000000033
:103660000801000018000000003000000000000009
:1036700090360000000020203000000020010000F3
:10368000C036000030002020682300004801000000
:1036900021000000320000000A0000005E005E0011
:1036A0005E005E005E005E005E005E006400000082
:1036B00066006600660066006600660066006600DA
:04000005000000C136
:00000001FF
