:020000040000FA
:1000000030232020AD010000B1010000B301000049
:1000100000000000000000000000000000000000E0
:10002000000000000000000000000000B50100001A
:100030000000000000000000B7010000851F000064
:10004000BB01000025180000BB010000BB0100003F
:10005000BB010000BB010000BB010000BB010000B0
:1000600000000000BB010000BB0100000000000018
:1000700000000000BB010000BB010000BB0100004C
:10008000BB010000BB010000951F0000BB01000088
:10009000BB010000BB0100000000000000000000E8
:1000A000BB010000BB0100000000000000000000D8
:1000B000BB01000000000000BB010000BB0100000C
:1000C00000F002F800F062F812A030C808382418D6
:1000D0002D18AC4201D100F059F80FCCA246AB4626
:1000E0000CA730CF2D1B083F3F197C427F1E544484
:1000F0002D090426F441641EAC4201D300F046F8F9
:100100000126334200D0FB1A3343984754465D46DC
:10011000DFE700001C2600003C2600000000000075
:10012000103A02D378C878C1FAD8520701D330C840
:1001300030C101D504680C60704700000000000069
:100140007047000000000000002300240025002666
:10015000103A01D378C1FBD8520700D330C100D583
:100160000B60704710B5642902D100F081F810BD12
:10017000002010BD1FB50098019900F038FF00F075
:1001800023FC1FBD10B500F08BFC10BD00F024FD5A
:100190001146FFF7EFFF02F00BF800F0DBFE03B4AF
:1001A000FFF7F0FF03BC01F041F8000006480047EC
:1001B000FEE7FEE7FEE7FEE7FEE7FEE70348044949
:1001C000044A054B70470000C100000030032020A6
:1001D0003023202030132020301320200FB41CB5F2
:1001E000074B06AA7B4469460090059800F0C1FAC7
:1001F0000020694600F0D0FA1CBC08BC04B01847C7
:10020000B1050000F8B50E460446002020622046E5
:10021000E1688847002829D0252802D06268A168B3
:1002200020E0E16820460027884705001ED02846C8
:100230004138192802D80127FF02203532462046CE
:1002400027602946FFF78EFF002808D0012804D038
:10025000F61DF608F6000836D9E7361DD7E76268BE
:100260002846A1689047206A401CCFE7206AF8BD65
:10027000F7B5002575291068009914A611D0C0465D
:10028000C046002802DA404211A608E00099096839
:100290008A0701D50FA602E0490704D50EA601255D
:1002A00001E0C046C046009F0024243704E000F06F
:1002B00078FA30313955641C0028F8D12B46324683
:1002C0002146009800F0F8F9FEBD00000000000093
:1002D0002D0000002B0000002000000010B5044697
:1002E00003E002F0C9F8401C08D020780549641CDE
:1002F0000028F6D10A2002F0BFF810BD0020C0434C
:1003000010BD00006400202001E004C0091F042982
:10031000FBD28B0701D50280801CC90700D0027078
:10032000704700290BD0C30702D00270401C491E41
:10033000022904D3830702D50280801C891EE3E7CB
:100340000022EEE70022DFE77047704770470000A9
:100350000246C80FC00781434B0030B54B405B00DD
:100360009B0D20D01923DB06C91801231B059942D8
:1003700020DB0324A40704251346AB400BD3002B3A
:1003800004D1EB0613409B00E34204D4012464072C
:10039000002312195941FF231B0599420BD2C900B2
:1003A0000143500F09E0CB0204D501430803024387
:1003B00005D0054830BDFF21C905084330BD0846BA
:1003C00007210905884330BD0000C07F1F22030CB0
:1003D00002D10F22000402D0030E03D004E000205B
:1003E000014670470002083A030F01D10001121FB5
:1003F000830F01D18000921E002801DB4000521EB5
:10040000120551184205C012411810467047C10F1D
:10041000C90700D04042012292071143D6E70121CB
:100420008907D3E7F0B58B4C0F09254689B0BD434A
:100430007BD01D092646AE43FAD00E465E402740CB
:10044000F60F3E43254071D024012142FBD0FF240A
:10045000AD19A4042D1B039501252D05DB02DB0A34
:10046000C9022B43C90A29431E010901040F130FB6
:10047000050121431701880B820391432D098C4606
:10048000A90B1E438A039543B30B9A0396433F0976
:10049000BA0B9403A74302962E467E430497B646B2
:1004A0004E19D7190C460196544305977E43371BC6
:1004B0007646BF1B3601B646BE0B36190096764609
:1004C000BC043719009C01D3641C00946400002F05
:1004D00001D001263443029E049F754366467E4345
:1004E0000496760034196E0034190094029C019E23
:1004F0001C196643751BAE46069465464519059C56
:1005000005956C43594375460891691A0191049EFB
:1005100001465143A41B0491611A009C0791E10616
:1005200005D061090122114302E072E06EE0610929
:10053000089D00272C0A2D066918049D7C412A0A73
:100540002D066918019D6241AC0DAD026D18544134
:10055000079A910D920255196141029A64465843D7
:100560005443069B059A5A43121A131B9A0E9B0179
:100570005B187A41010B0005C3185141220A20067D
:1005800044195A419A4200D2491C0120400281423A
:1005900003D315230226F64302E014230326F64371
:1005A0002020C51AA9401746AF40DA400A4320462A
:1005B0000399D8400914731819055118039A384340
:1005C000D2075140AC4009D00122944006D300220A
:1005D000401C5141002C01D1400840001E4A93426A
:1005E00012D3012203989206904207DB05204007B0
:1005F00009181A480143C012414004E00320400793
:100600000818C10FC907002009B0F0BD0020F1078C
:10061000FAE705180C464C4111486D42A04115D32C
:1006200094181A465A410E48644290410ED3012054
:100630004A004005824209D35A00824206D35940FB
:10064000C90F084AC90700201143DDE70020064909
:10065000DAE700000000FF07FE070000FFFFFF7F52
:100660000000E0FF0000F07F0000F87F10B50146B9
:100670009E240002CA15A307002A02D01843002AAC
:1006800004DBA21A002A0CDDD04010BD1206120EA7
:1006900001D140004008A21A03D4D04040420028B3
:1006A000F3DDFF2248001206904201D9002010BD60
:1006B000C817C043584010BDFFB504460D4681B071
:1006C000243000902168880604D51022E069914307
:1006D000216000E00120A84201DD471B00E0002767
:1006E0000498A1697A191018081AA0612078C00628
:1006F00002D42046C046C046002608E0039862683F
:10070000A168805D9047206A401C761C2062049896
:100710008642F3DB2078C0060AD52046C046C04694
:1007200006E06268A16830209047206A401C206281
:1007300038467F1E0028F4DC07E000986268A16854
:10074000405D9047206A401C206228466D1E0028AC
:10075000F3DC2046C046C0462078000602D50220C1
:1007600005B0F0BD0120FBE701694A1C0261087871
:10077000704700B58FB002910021059105490193A2
:1007800079440391114604906846FFF73BFD0FB092
:1007900000BD0000E5FFFFFF0A681070521C0A60F0
:1007A000704701468008081A02091018020A10183A
:1007B000020C1018C008820012185200891A01E0B9
:1007C000401C0A390A29FBD27047000000487047D4
:1007D0000C012020F7B505460C46C8680521C90460
:1007E0008843012189050843E060800602D5204640
:1007F00000F0EFFA7249E0680140022903D0204678
:1008000000F086FABEE00521012249030140D2032F
:1008100091420FD1C00306D56168E06A884200D8D2
:100820000846606006E02069E0626060606900F090
:10083000C8F9A061A1680022EEB200290EDAE068D2
:1008400083050BD4C943A1600921226049030843F1
:10085000E0606068411C61600670AEE0E068012104
:1008600049030843E060002020602069002831D15E
:10087000606900F098F9012527462437ED02002829
:1008800016D0A0898005800F08D0E06900F0C3F978
:100890000028206102D0E068284318E00120276189
:1008A000E061E068032109028843012189020DE02B
:1008B000E06900F0B0F900282061EFD0E06828433B
:1008C000E0608105890F03D1FF2101310843E06019
:1008D00020696060E2683B4F2569D00520D56168DA
:1008E000E06A884200D80846411B05D022462846C7
:1008F00000F018FA002845D10298002804D0E562DB
:1009000000206560A06055E0681CE0626060E069FE
:10091000401EA060E0683843E06030462E70FEBDA7
:100920000298002801D03A4009E06068411C6160EB
:100930000670E06838430A2EE06006D00022E16AC3
:100940006068814203D90B4602E00122F7E70346C3
:10095000A7895B1B7F0504D4E7699F4201DD002A5C
:100960001ED0814200D801460F1A0020E562656062
:10097000002BA06009DD22461946284600F0D2F976
:10098000002802D00020C043FEBD002F08D0A0697F
:10099000E5626560C01BA061E06810210843E0606B
:1009A0000298002809D06168A069E562491B4018D7
:1009B0006560A0610120C043FEBD3046FEBD000061
:1009C000821000000000010010B543485421FFF7D9
:1009D000B9FC42485421FFF7B5FC41485421FFF7C8
:1009E000B1FC40483C493D4B404A01603E480360F1
:1009F0003B4810605A1C0A65411C196501210165BC
:100A00003C48354A3AA1784400F008FA002804D15D
:100A1000384878440C3800F0A5FA38482F4A36A1F7
:100A2000784400F0FBF9002804D1344878440C38AD
:100A300000F098FA32482A4A2FA1784400F0EEF9E3
:100A4000002804D12E4878440C3800F08BFA40235B
:100A50002148DC000021224600F034F9002804D0AF
:100A6000244878445C3800F07DFA1C482246402334
:100A7000002100F027F9002804D0204878445C3891
:100A800000F070FA164822461023002100F01AF9EF
:100A9000002804D01A4878445C3800F063FA10BD8E
:100AA0000F4870B5006D44080B48640000F02EFA42
:100AB0000A4800F02BFA0A4800F028FA09E0206DF5
:100AC000450820466D0000F021FA204600F0D4F8D9
:100AD0002C46002CF3D170BD100020206400202093
:100AE000B800202000002020040020200800202042
:100AF00072000000921C0000770000007C1C0000C7
:100B0000661C000010B5FF231B0644009C421DD844
:100B10004C009C421AD80346124A0B4307D4401A91
:100B200002D3EFF3008010BDEFF3008010BD081A70
:100B300003D3EFF30080904305E0EFF30080012141
:100B40009043C907084380F3008810BD0D231B04A0
:100B50001A4204D01146002000F00AFA10BD00F03D
:100B60001FFA10BD000000900EB50191009000F03A
:100B70000BFB029069460120ABBE0EBD08B569466D
:100B800000900220ABBE08BD1FB56B4607C3694687
:100B90000520ABBE04B010BD1FB56C460FC469463E
:100BA0000620ABBEF6E708B5694600900920ABBE4B
:100BB00008BD1CB500900A2001916946ABBE1CBD62
:100BC000704708B5694600900C20ABBE08BD000018
:100BD000004870470C0120207546FFF7F9FFAE462C
:100BE000050069465346C008C000854618B020B5C8
:100BF000FFF7E4FA60BCB64600260027C0C5C0C5B2
:100C0000C0C5C0C5C0C5C0C5C0C5C0C5403D4908F8
:100C100049008D46704770B5064600F0CBF905686F
:100C200030460B30C408E400B44201D8002070BD47
:100C300068682A46002818D00168A14211D30B46E3
:100C4000214608318B4208D3436801194B60036881
:100C50001B1B0B605160046001E041685160001D86
:100C600070BD024640680028E6D12146284600F0C3
:100C7000A9F90028DCD170BD70B50446051F00F04D
:100C800099F90068002C1AD0446801E02046646895
:100C9000002C01D0AC42F9D301680A18AA4204D151
:100CA0002A6805468918016000E0456028684119F6
:100CB000A14205D16168696021684018286070BD53
:100CC0006C6070BD70B5C468A50713D0650211D4FF
:100CD000D51FF93D0AD0FF3D6D1E07D0FF3DFF3DFA
:100CE000022D07D101462431012305E0074E5D1E88
:100CF000B54201D3012070BD0161C36141600F2184
:100D000009028C431443C460002070BDFFFFFF0044
:100D1000C1688022114392039143C1600021816028
:100D200001607047F7B515460C4682B050690090D7
:100D30003748D768074209D0A9690098FFF739FFFB
:100D4000002815DB3248C0430740EF60314EB44203
:100D500000D826463B46324602990098FFF714FF1A
:100D60004200A9695208B21A89180028A96106D060
:100D70002846FFF7CDFF0020C04305B0F0BDA41BFF
:100D8000E4D10020F9E770B504460569C06A6168DE
:100D9000884200D80846E1680522D2049143E16008
:100DA000C90314D5A84209D02246411B2846FFF7A3
:100DB000B9FF002802D00020C04370BDE5620020CA
:100DC0006560A060E068012109048843E0600020BC
:100DD00070BD10B50446C06820218843E060A16A58
:100DE000A06988420ED02046FFF7CDFFE0680321BE
:100DF0000903884310210843E060A06AA0612069CC
:100E0000E06260600449E0680840E06010BD0000F6
:100E100010000200FFFFFF7FBFBFFFFFF7B51646C0
:100E20000C460098002843D0104600F06FF8207858
:100E3000611C61280AD0722802D0772839D102E0DB
:100E40000125002404E00225042401E02D4D08249E
:100E50000222032301270878491C2B2806D0622888
:100E600007D02039C87F742807D008E01D431443F9
:100E7000F1E7042005433C43EDE7102004430098CC
:100E80002146FFF771FE411C13D0002131617160D2
:100E90000121F5604902F1617061200704D53046F7
:100EA0000222002100F0D6F8306D3843306530461C
:100EB000FEBD0020FEBDF8B50D460646124C206D65
:100EC000C10704D0410804D044086400F7E7224673
:100ED00010E05420FFF79FFE070010D07908206D26
:100EE0004900012211430843542120653846FFF789
:100EF00029FA3A4629463046FFF790FFF8BD002010
:100F0000F8BD00000280000010002020F8B5044663
:100F10000026476900690090E568A80717D02046B9
:100F2000FFF731FF3846FFF729FE002800DA761E6A
:100F3000280502D50098FFF79FFE4C212046FFF7B9
:100F400001FA206D4008400020653046F8BD0020C1
:100F5000C043F8BD10B50446C046C0462046FFF762
:100F60001EF910BD10B500F0F5F800F0EDF810BD59
:100F7000C80212D54803400F002804D0C803C0435C
:100F8000012188407047EFF3008000010009032130
:100F90000907084380F3008870470020704700006D
:100FA00010B5024800F012F910BD00000000C07F2B
:100FB00070470000004870471401202070477047B8
:100FC0007047704738B504460A4600206946C04657
:100FD000C046002805D002462046009900F02CF9B2
:100FE000012038BD10B5012000F07BF910BDF8B527
:100FF000C046C046054600200C460C20C0460646AA
:10100000A819A0420DD9324669460020C046C04604
:10101000070001D100F065F90098A04200D0054614
:10102000C419FFF7C7FFF61D07460560F008C000AA
:101030004619284600F008F8B44204D03146386812
:10104000A21B00F0F9F8F8BD002101604160704773
:101050000C207047F8B5044616460D464769007BDC
:10106000800730D03846FFF79EFD00282BD132464E
:101070001026002A25D0012A02D0022A23D104E01A
:10108000204600F0F3F845191BE03846FFF799FDBC
:10109000E16831430028E16004DA2046FFF738FEBA
:1010A0000120F8BDC9030BD56268E16A914200D8FE
:1010B0001146A26989182269891A814200DD084611
:1010C0002D18002D01DA0220F8BDE16A6068E2689F
:1010D000814206D29103E06203D5012149048A438B
:1010E0003243A669AE4211DCE16A814201D90B4666
:1010F00000E003469F192369FF1AAF4206DD8142D3
:1011000001D90F4600E007469F4206D12020024346
:101110000020A060A56220600DE0AD1BE669AE1B5B
:101120008142A66000D90846C01A281A20605819C2
:10113000606020208243034802400020E260403487
:101140002072F8BDBFCFD7FF10B5002801D000F046
:101150006DF810BD10B5014602A000F0A8F80120FE
:1011600010BD000053494752545245443A2052653D
:101170006469726563743A2063616E2774206F70CE
:10118000656E3A200000000030B5441C03E0017891
:10119000401C00290DD08107F9D10B4BDD0104C89B
:1011A000D11A91432940FAD0001B0A0603D0C01E71
:1011B00030BD001B30BD0A0401D0801E30BD0902C5
:1011C000FCD0401E30BD00000101010110B50C46ED
:1011D0001107090F092904D00A290AD008290CD1BE
:1011E00004E011460820FFF7C3FE06E0510606D5CD
:1011F00001E0510601D50120C007214610BDD106EE
:1012000007D501010909CC084907000E000604436F
:1012100009E0410F20024907000A0143200E0006A1
:101220001D22D14101430846E7E70000014918208B
:10123000ABBEFEE72600020010B50346406801E0A1
:1012400003464068002801D08842F9D31868C318C3
:101250008B4206D0CB1CD808C000001D411A521A80
:101260000146081D0A60FFF707FD10BD10B50146D5
:10127000C268900703D0900607D5886A0AE0FFF796
:10128000A5FA01210160881E10BD8B694868C0184D
:101290000B69C01A40310B7A002B02D0497A401AF0
:1012A00010BD1103FCD50028FADD401E10BD70B53D
:1012B00005460C460A2000E06D1C00F018F8002DD1
:1012C00006D028780028F7D102E0641C00F00FF85F
:1012D000002C02D020780028F7D10A2000F007F86F
:1012E00070BD10B500F00AF8FFF72EFF10BD08B56D
:1012F000694608700320ABBE08BD000010B5012888
:1013000005D0002103A0FFF7D2FF012010BD09A1E5
:10131000F8E7000053494752544D454D3A204F7568
:1013200074206F662068656170206D656D6F7279DD
:10133000000000003A2048656170206D656D6F7295
:101340007920636F7272757074656400B0B50A7845
:10135000032313400B4A84580B4D2540EB18A92456
:1013600024061B198350072212064B6813401124D0
:10137000240205599543EA18025100194978016180
:10138000B0BDC04608080000FCFFFF00811E091F19
:1013900000BFFCD27047000070B50B01C318546841
:1013A0009568254394892C43156956692543D4894A
:1013B00024012C4335012543092464021D5113786F
:1013C00052781A43BF231A408900401802494458F2
:1013D0009C43A218425070BD10110000B0B51122FC
:1013E000120283580C4C1C400B894D881D438B798D
:1013F0002B430A4D1D402B1983508B88CC791C43FD
:10140000097821435D239B001940801842689A4364
:1014100089184160B0BDC04680CCFFFF7F3300001B
:1014200010B50122120383180C785C604978815052
:1014300010BD0000F0B584B0012422022A4B1968C7
:1014400003929143196049490D686D04FCD5457EAE
:1014500025409E69A64374199C612024045D0325E0
:101460002C40DE69AE433419DC61204C256805262A
:101470002660466A37681F6276685E6207262E40DD
:101480002660C4697F252D02DE69AE436406640CC4
:101490003419DC610768456882680092C668026991
:1014A0000192426902929A69114C14403A07120B58
:1014B0002D03ADB2AA183243009D2D072D0D154303
:1014C000019A1543029A1543007E2843094A0240B7
:1014D000101998611868039A10431860086880050D
:1014E000FCD504B0F0BDC04608010B4000134040DD
:1014F0008D00F0FF72FF0F00F0B5124B1D46083D46
:101500002E680124A6432E600326360330401F6850
:10151000B743381818601868FF26B043C9B240189E
:10152000186028682043286018682107002A06D020
:10153000084318600D480168C905FCD5F0BD884313
:101540001860F0BD10010B40074988600748026829
:101550009202FCD5012212040B6813430B60016850
:10156000C906FCD57047C04604010B4004020B407D
:10157000F0B57A4A82183B4BC31808794E793A4D38
:10158000784C002E23D0202804D00526F601002810
:1015900003D003E0354E002800D18826576F2F4036
:1015A00037435767976F2F4037439767566B2640EF
:1015B0005663966B264096630026566596658F2681
:1015C000F6435F6837405F609F6837409F608E7961
:1015D000096820280BD0002819D1491E5160D76E08
:1015E0002F4088210F43D7661746703719E0491EF0
:1015F0005160D16E29401D4F3943D166116F29408A
:101600003943116701214907194D174609E0490877
:101610005160D76E2F400521C9010F43D766174689
:1016200070373C682C400C433C60D16A4D4C2140E3
:10163000D162116B214011630021D16411658F21AA
:10164000C943D46F0C40D4671C680C401C6006432F
:10165000BD2030401168074B0B40C018801C106043
:10166000F0BDC0468418000024493E00010400007B
:10167000FFFFFFCF4000FFCFB0B54A68364BC250E6
:10168000364A80180A78222A58D8930001A4E358D1
:101690009F46C046331700003D1700003317000077
:1016A0003D1700003D1700003D1700003D170000EA
:1016B0003D1700003D1700003D1700003D170000DA
:1016C0003D1700003D1700003D1700003D170000CA
:1016D0003D170000211700003D17000021170000F2
:1016E0003D1700003D1700003D1700003D170000AA
:1016F0003D1700003D1700003D1700003D1700009A
:101700003D1700003D1700003D1700003D17000089
:101710003D170000211700003D17000021170000B1
:1017200003231B0704689C4301235B07E318036042
:1017300004E003231B0704689C4304600B69C36037
:10174000CB68074C1C40C36A064D1D402B19C36271
:10175000097A11430160B0BD0818000004180000A8
:10176000777702008888FDFF10B507239B04194096
:1017700092008018024A84589C436118815010BD21
:101780003018000010B5029CA40000191143194341
:10179000014A815010BDC0465018000092008018C8
:1017A000014A81507047C0461018000010B5012250
:1017B000120383180C789C604B7883508978014A17
:1017C000815010BD0C110000B0B5112212028358D7
:1017D0000124A34383500B888C781C438B882343BC
:1017E000094C1C408358094D1D40631983508B7967
:1017F000CC791C43097A21437E2319408018426822
:101800009A4351184160B0BD18670000E798FDFF8A
:1018100010B50122120383180C789C60497881501E
:1018200010BD00000E480146103909680A0409D4A9
:1018300089030FD50B490B680C490A685B0207D571
:10184000521E06E007490B6807490A68DB03F7D513
:10185000521C0A600521C90302680A4302607047EE
:1018600048100A4080130A4080012020880120206F
:10187000F0B581B069496A4808600121CE05694820
:10188000066019200501684F386800020DD50091E7
:1018900032242846FFF77AFD641E3868304201D0B2
:1018A0002006F6D12006009C0DD080245D4F3C60C0
:1018B0002846FFF76BFD3C618120584908603E6077
:1018C0003E64002410E0812054490860554F3E607A
:1018D0003E64802038613E6138602846FFF756FD3F
:1018E0003E602846FFF752FD204601B0F0BDC046DD
:1018F000F0B587B049484A4901604A4D80262E61BB
:10190000192004012046FFF741FD2E602046FFF715
:101910003DFD454F386806902046FFF737FD2E61A4
:101920002046FFF733FD2E602046FFF72FFD386875
:1019300005902046FFF72AFD2E612046FFF726FD81
:101940002E602046FFF722FD386804902046FFF7FE
:101950001DFD2E612046FFF719FD2E602046FFF782
:1019600015FD386803902046FFF710FD2E612046D4
:10197000FFF70CFD2E602046FFF708FD3868029047
:101980002046FFF703FD2E612046FFF7FFFC2E6087
:101990002046FFF7FBFC386801902046FFF7F6FC75
:1019A0002E612046FFF7F2FC2E602046FFF7EEFC8A
:1019B000386800902046FFF7E9FC2E612046FFF7CB
:1019C000E5FC2E602046FFF7E1FC3D682046FFF76E
:1019D000DDFC0498810D02200140069A920D024020
:1019E000059B1B02DB0F9A1892005118039A1202F2
:1019F000D20F51188900029A920D02408918019A5B
:101A00001202D20F51188900009A920D02408818D4
:101A10002902C90F0818C0B207B0F0BDCC804240FF
:101A20008100040090320A4080330A40B0B501249E
:101A3000A0071249FFF78AFC1148C16F114A0A40FA
:101A400061045118C16710490A68104B13400B60BC
:101A500000228A670A22CA6022020B6813430B60C5
:101A60001F23DB020D689D43E302EB180B60016846
:101A700011430160816F21438167B0BDA82600003A
:101A800088100040FEFFECFF08110040F8FFE0E086
:101A900080B504482821016003480021034AFFF76C
:101AA0007BFC80BD0CB2424000A04240B02600004A
:101AB00080B5FFF7EDFF80BD10B525490020086017
:101AC00048608422CA61234810230360CA6002224E
:101AD00002608222CA62204A0A6383220A64CA63BD
:101AE00081224A660A668A60CA654A648A644A65CF
:101AF0001A4B1A631A4CCC660C674C679C608A635D
:101B00009A61DA608A661A6007210903154A116032
:101B1000116301218907144A13680B43136011698B
:101B2000124B0B4313610521C903114A136A0B437E
:101B3000136213680B431360014630390D4A0A6083
:101B4000014640390C4A0A600C49016010BDC0468C
:101B500028804240D0320A4082000400B4804240D3
:101B600081000C00A0120A4090130A4005100000EA
:101B700028100A40014C190480008000814C99040F
:101B8000F0B581B0194C1A492046FFF70FFE1949EC
:101B90002046FFF7EDFC00250095204629462A4601
:101BA0002B46FFF7EFFD204629462A46FFF7DCFDCE
:101BB000114E204631462A46FFF7F0FD01270097D7
:101BC000204629462A462B46FFF7DCFD20462946BB
:101BD0003A46FFF7C9FD204631463A46FFF7DEFD9B
:101BE000064887600321016001B0F0BD00208640F7
:101BF000C8260000CC2600001027000000318640D7
:101C000010B50C4C0C492046FFF70AFC0B49204646
:101C1000FFF7E4FB0A4841680A4A0A4042608168CB
:101C200012220A432D218A438260016801220A435D
:101C3000026010BD00A04640D4260000D626000059
:101C400004B1464000FCFFFF70B518480024046052
:101C50000F200002164D2968814301225002081806
:101C600028600320C1432B1F1E680E401E60696858
:101C70009143696011026B688B436B6000030A211A
:101C8000FFF73AFC0B48FFF7D5FB2868102101430A
:101C90002020814329602046FFF756FCFF200002E8
:101CA00005490A6882430A6070BDC04608030B40BC
:101CB00004010B40E026000000E400E00848094968
:101CC0004160FF210906084A13688B4303218907F5
:101CD0005918116000218160072101607047C046DA
:101CE00010E000E07F38010020ED00E010B50D4C61
:101CF0000D492046FFF75AFD0C492046FFF7BCFC72
:101D00000B480168012211430160FF2000040949CA
:101D10000B6883430320800518180860064802609A
:101D200010BDC04600008640082700000C270000B8
:101D30002810864010E400E00811864010B5124CCF
:101D400012492046FFF764FD11492046FFF73CFD8C
:101D50000320C1030F4802688A43026001690E4AEA
:101D60000A408232026141690D220A4332218A43CC
:101D70004261416801221140436893435918416010
:101D800001681143016010BD008010402027000051
:101D900022270000009110400000FFFF80B500F0F6
:101DA00023F8FFF789FEFFF74FFFFFF7E9FEFFF784
:101DB0009DFFFFF7C3FFFFF723FFFFF737FEFFF796
:101DC00077FEFFF77BFFB820044900220A5404493C
:101DD0000A54242003490A5480BDC04670022020C2
:101DE0008C01202048022020F0B581B00D480E491A
:101DF00041600E4A51600E4B59600E4C61600E4DB1
:101E000069600E4E71600E4F79600E49016011607D
:101E1000196021602960316039601020FFF7B6FA3F
:101E200001B0F0BD00080A40030000B100280A40DC
:101E300000288640000886400088104000A84640E0
:101E40000008004001000026F0B581B04B4A812116
:101E500011600121CC054A4E34603464802737611B
:101E6000009040B2002801D4346100E03460A0202A
:101E7000FFF78CFA3760192005012846FFF786FA2C
:101E800037612846FFF782FA0098400601D4346192
:101E900000E03460A020FFF779FA37602846FFF7AA
:101EA00075FA37612846FFF771FA0098800601D469
:101EB000346100E03460A020FFF768FA37602846FC
:101EC000FFF764FA37612846FFF760FA0098C0060A
:101ED00001D4346100E03460A020FFF757FA376086
:101EE0002846FFF753FA37612846FFF74FFA009864
:101EF000000701D4346100E03460A020FFF746FA07
:101F000037602846FFF742FA37612846FFF73EFA66
:101F10000098400701D4346100E03460A020FFF74E
:101F200035FA37602846FFF731FA37612846FFF760
:101F30002DFA0098800701D4346100E03460A020BD
:101F4000FFF724FA37602846FFF720FA3761284662
:101F5000FFF71CFA0098C00701D1346100E034603B
:101F6000A020FFF713FA37602846FFF70FFA376112
:101F70002846FFF70BFA01B0F0BDC046CC804240C6
:101F800090320A4002480168491C01607047C0460F
:101F90007801202080B504480068C0B2012801D132
:101FA00000F004F880BDC046201086400548016856
:101FB000054A116005490A68054B1A600022026053
:101FC0000A607047800120207C01202088012020A9
:101FD00084012020F0B583B001AA00209080908079
:101FE0000190019050203D21062300F00BF90028BC
:101FF00002D13DA0FEF772F901A8417800780902EC
:102000000818FEF704FA3F221506002422462B4644
:10201000FEF708FA374B2246FEF704FAFEF798F966
:102020000446354900F01BFA002801D1354906E085
:102030003249204600F008FA002804D130492046F1
:1020400000F02AFA044601A8C1788078090208182D
:10205000FEF7DDF9002632462B46FEF7E3F9254B65
:102060003246FEF7DFF9FEF773F90646224900F023
:10207000F6F9002801D1234906E02049304600F056
:10208000E3F9002804D11E49304600F005FA06465F
:1020900001A84179007909020818FEF7B8F900276C
:1020A0003A462B46FEF7BEF9124B3A46FEF7BAF90E
:1020B000FEF74EF90546104900F0D1F9002801D18C
:1020C000104906E00D49284600F0BEF9002804D169
:1020D0000B49284600F0E0F90546344804604660A4
:1020E0008560284603B0F0BD526561642045727278
:1020F0006F720D000080664000003443000034C35E
:102100000000B4430000B4C3F0B587B006AA254868
:10211000108050256921009102242846234600F0B2
:1021200031F9214F3846FFF731F905AA0420108014
:10213000012628463146234600F024F93846FFF7A9
:1021400025F904AA0027178028463946234600F0BF
:1021500019F91548FFF71AF903AA12481080284602
:102160000099234600F00EF90F48FFF70FF902AA75
:102170000820108028463146234600F003F90A481B
:10218000FFF704F901AA178028463946234600F0D4
:10219000F9F80548FFF7FAF80448076047608760D8
:1021A00007B0F0BD88B5FFFF0024F4006C012020CB
:1021B00088B0FFF7F3FDFFF7A7FF68460021818392
:1021C000069105910491039102910191009109A456
:1021D0000B4DFFF7FFFEFEF749FA02466E4630460A
:1021E0002146FDF7FBFF304600F0B0F82846FFF728
:1021F000CDF8EEE7616E676C653D2025640D0A0041
:1022000000127A00F0B589B008930392029107900A
:102210008B4881210691016001200190C505894FFD
:102220003D603D6480243C613D603C6019200601B6
:102230003046FFF7ABF83D613046FFF7A7F83C6149
:102240003046FFF7A3F8079840000090C0B2FFF7B0
:10225000FBFD00200590FFF70BFB002808D104943C
:1022600007960298FFF7F0FDFFF702FB002802D067
:10227000059809B0F0BD079E3046FFF787F8704813
:10228000069901603D603D64049C3C613D603C609A
:102290003046FFF77BF83D613046FFF777F83C6149
:1022A0003046FFF773F8019800990143C8B2FFF771
:1022B000CBFDFFF7DDFA00280598DAD1089C002C49
:1022C00030D0601E0590039E18E00399059A88544B
:1022D0005B48069901603D603D64049C3C613D6142
:1022E0000798FFF753F807983D603C60FFF74EF8FA
:1022F0003C613D60761C089C641E13D0FFF7F8FA21
:10230000012C0894E1D030704D48069901603D6081
:102310003D64049C3C613D610798FFF737F80798DE
:102320003D61E2E74648069901603D603D640498DE
:1023300038613D613860079C2046FFF727F83D6013
:102340002046FFF723F8019809B0F0BD0178002975
:1023500014D00B4A04E09161581C597800290DD023
:1023600003461068C007F6D01068C007F3D01068A5
:10237000C007F0D01068C007F3D1ECE77047C04643
:1023800008911040F0B587B0049316460591069069
:102390002B4881210191016001200390C405294847
:1023A000046004648025056104600560192007014C
:1023B0003846FEF7EBFF234804613846FEF7E6FF98
:1023C0000295204805613D463846FEF7DFFF069836
:1023D0004006000EFFF738FD0027FFF749FA0028F6
:1023E00009D12846049D06900598FFF72DFDFFF7BB
:1023F0003FFA002802D0384607B0F0BD002D09D0C2
:102400003078FFF721FDFFF733FA0028F3D1761C6F
:102410006D1EF5D101980A4908600A4D2C602C64A4
:10242000029828612C612860069E3046FEF7AEFFB8
:102430002C603046FEF7AAFF039807B0F0BDC046F7
:10244000CC80424090320A4010B500F06BF8EFF3B8
:102450000080800001D5012010BD002010BD10B506
:1024600000F08AF8EFF300804000800F012801D0CF
:10247000012010BD002010BD10B58A68002A03DCC1
:102480000022FEF7A7F910BD521E8A604A68C0B24A
:10249000531C4B60107010BD70B50125ED07040092
:1024A0004C4020D4441A01D2001B0919C60D4B0020
:1024B000F2B2FF2A29D01B0E2CD000020C022843B6
:1024C0002C43D31ADC40051910D2280A02D3401C31
:1024D0006D0611D0761EF6058019FF2A00DA70BD50
:1024E000C00DC00570BD694000F076F801200543BD
:1024F000C541521C761CE8E764089C40C901614054
:102500008900E7D10124A043E4E71B0E440200D078
:10251000034870BD002AFCD1C00FC00770BD00BFCA
:102520000000C07F0123DB0502000A430DD4DA421C
:1025300003D49A4207D488427047D84214D4D9426F
:1025400012D48842704780427047DA4203D59A42DB
:10255000F9D5814270475B004200DA4204D24A005A
:10256000DA4201D28142704710B5024AFEF7CAFA38
:1025700010BD00BF090013040123DB0502000A435C
:102580000DD4DA4203D49A4207D488427047D84225
:1025900014D4D94212D48842704780427047DA423C
:1025A00003D59A42F9D5814270475B004200DA4276
:1025B00004D24A00DA4201D28142704710B5024A81
:1025C000FEF7A0FA10BD00BF0900160470B5012582
:1025D000ED0704004C4022D4441A02D26C40001B88
:1025E0000919C60D4B00F2B2FF2A4BD01B0E50D07A
:1025F00000020C02A8432C43D31ADC40051B05D56E
:10260000AD0019D36D08761E521E37D0F605280A84
:1026100001D2801970BD70416D0603D070BD694054
:10262000FFF740FF9C4009026140490001D0401E75
:1026300070BD0124A04370BD6D081DD001202B0C7E
:1026400001D12D0410302B0E01D12D0208302B0F9B
:1026500001D12D01001DAB0F01D1AD00801CEB0F8E
:1026600001D16D00401C361A121A6D00680AF5057A
:102670004019012A02DB70BD002070BDC036300A4F
:10268000C00770BD1B0E440201D1FF2B00D10248D0
:1026900070BD002AF0D070BD0000C07F3A74740095
:1026A0003A7474003A7474000006000000000003DD
:1026B00017000000000000200000000000010001E1
:1026C00000000000000003000800000010270000C8
:1026D00000000100080004000000000007100000D6
:1026E00001000000000000000000000000000000E9
:1026F00000000000100000000001000003000000C6
:10270000000000003400C441080709000200000076
:102710001F4E00000100000000000000000000004B
:102720000801000018000000003000000000000058
:1027300050270000000020201000000020010000B1
:102740006027000010002020202300004801000026
:102750000000000000000000000000000000000079
:04000005000000C136
:00000001FF
