:020000040000FA
:10000000100A20207D010000810100008301000012
:1000100000000000000000000000000000000000E0
:10002000000000000000000000000000850100004A
:1000300000000000000000008701000089010000AE
:100040008B0100001D0A00008B0100008B010000E5
:100050008B0100008B0100008B0100008B01000070
:10006000000000008B0100008B0100000000000078
:10007000000000008B0100008B0100008B010000DC
:100080008B0100008B010000311200008B01000089
:100090008B0100008B010000000000000000000048
:1000A0008B0100008B010000000000000000000038
:1000B0008B010000000000008B0100008B0100009C
:1000C00000F002F800F04AF812A030C808382418EE
:1000D0002D18AC4201D100F041F80FCCA246AB463E
:1000E0000CA730CF2D1B083F3F197C427F1E544484
:1000F0002D090426F441641EAC4201D300F02EF811
:100100000126334200D0FB1A3343984754465D46DC
:10011000DFE70000AC4F0000BC4F00000000000013
:100120007047000000000000002300240025002686
:10013000103A01D378C1FBD8520700D330C100D5A3
:100140000B60704710B5642902D100F079F810BD3A
:10015000002010BD1FB51FBD10B510BD00F034FA52
:100160001146FFF7F7FF01F0A3FC00F04CFA03B4CF
:10017000FFF7F2FF03BC00F04FFA0000064800470B
:10018000FEE7FEE7FEE7FEE7FEE7FEE70348044979
:10019000044A054B70470000C100000010022020F7
:1001A000100A202010062020100620200FB41CB5B5
:1001B000074B06AA7B4469460090059800F0D3F9E6
:1001C0000020694600F0E2F91CBC08BC04B01847E6
:1001D000D5030000F8B50E460446002020622046F4
:1001E000E1688847002829D0252802D06268A168E4
:1001F00020E0E16820460027884705001ED02846F9
:100200004138192802D80127FF02203532462046FE
:1002100027602946FFF796FF002808D0012804D060
:10022000F61DF608F6000836D9E7361DD7E76268EE
:100230002846A1689047206A401CCFE7206AF8BD95
:10024000F7B5002575291068009914A611D0C0468D
:10025000C046002802DA404211A608E00099096869
:100260008A0701D50FA602E0490704D50EA601258D
:1002700001E0C046C046009F0024243704E000F09F
:100280008AF930313955641C0028F8D12B463246A2
:100290002146009800F009F9FEBD000000000000B2
:1002A0002D0000002B0000002000000000220309A8
:1002B0008B4273D3030A8B4258D3030B8B423CD33C
:1002C000030C8B4221D312E003460B437FD4002260
:1002D00043088B4274D303098B425FD3030A8B42DA
:1002E00044D3030B8B4228D3030C8B420DD309025A
:1002F000FF2212BA030C8B4202D31212090265D0FC
:10030000030B8B4219D300E0090AC30B8B4201D3C4
:10031000CB03C01A5241830B8B4201D38B03C01A0B
:100320005241430B8B4201D34B03C01A5241030B82
:100330008B4201D30B03C01A5241C30A8B4201D333
:10034000CB02C01A5241830A8B4201D38B02C01ADE
:100350005241430A8B4201D34B02C01A5241030A55
:100360008B4201D30B02C01A5241CDD2C3098B423A
:1003700001D3CB01C01A524183098B4201D38B01B7
:10038000C01A524143098B4201D34B01C01A52415A
:1003900003098B4201D30B01C01A5241C3088B429F
:1003A00001D3CB00C01A524183088B4201D38B008A
:1003B000C01A524143088B4201D34B00C01A52412C
:1003C000411A00D201465241104670475DE0CA0F03
:1003D00000D04942031000D3404253409C460022C3
:1003E00003098B422DD3030A8B4212D38901FC22CD
:1003F00012BA030A8B420CD3890192118B4208D3A3
:10040000890192118B4204D389013AD0921100E004
:100410008909C3098B4201D3CB01C01A5241830918
:100420008B4201D38B01C01A524143098B4201D345
:100430004B01C01A524103098B4201D30B01C01A70
:100440005241C3088B4201D3CB00C01A52418308EA
:100450008B4201D38B00C01A5241D9D243088B4240
:1004600001D34B00C01A5241411A00D201465241F9
:10047000104663465B1001D34042002B00D5494231
:10048000704763465B1000D3404201B50449002821
:1004900002DC491C084000E00846C046C04602BDD8
:1004A000FFFFFF7F704770477047FFB504460D465A
:1004B00081B0243000902168880604D51022E069BC
:1004C0009143216000E00120A84201DD471B00E0CC
:1004D00000270498A1697A191018081AA0612078D9
:1004E000C00602D42046C046C046002608E0039855
:1004F0006268A168805D9047206A401C761C20627B
:1005000004988642F3DB2078C0060AD52046C04610
:10051000C04606E06268A16830209047206A401C0F
:10052000206238467F1E0028F4DC07E000986268ED
:10053000A168405D9047206A401C206228466D1EDD
:100540000028F3DC2046C046C0462078000602D5CD
:10055000022005B0F0BD0120FBE7000001694A1C44
:1005600002610878704700B58FB0029100210591B3
:100570000549019379440391114604906846FFF7B9
:1005800029FE0FB000BD0000E5FFFFFF0A681070F4
:10059000521C0A60704701468008081A02091018A8
:1005A000020A1018020C1018C0088200121852001B
:1005B000891A01E0401C0A390A29FBD27047000061
:1005C00000487047000020207546FFF7F9FFAE464F
:1005D000050069465346C008C000854618B020B5DE
:1005E000FFF7D4FD60BCB64600260027C0C5C0C5D5
:1005F000C0C5C0C5C0C5C0C5C0C5C0C5403D49080F
:1006000049008D46704710B50446C046C046204696
:10061000FFF7ADFD10BD000001491820ABBEFEE79D
:10062000260002007047811E091F00BFFCD27047E0
:10063000B0B51122120283580C4C1C400B894D8816
:100640001D438B792B430A4D1D402B1983508B88FA
:10065000CC791C43097821435D239B001940801805
:1006600042689A4389184160B0BDC04680CCFFFF04
:100670007F33000010B50122120383180C785C60F0
:100680004978815010BD0000F0B584B001242202E9
:100690002A4B196803929143196049490D686D040A
:1006A000FCD5457E25409E69A64374199C61202493
:1006B000045D03252C40DE69AE433419DC61204C17
:1006C000256805262660466A37681F6276685E627E
:1006D00007262E402660C4697F252D02DE69AE43C1
:1006E0006406640C3419DC6107684568826800920E
:1006F000C66802690192426902929A69114C1440DB
:100700003A07120B2D03ADB2AA183243009D2D07F4
:100710002D0D1543019A1543029A1543007E284377
:10072000094A0240101998611868039A104318602A
:1007300008688005FCD504B0F0BDC04608010B4038
:10074000001340408D00F0FF72FF0F00F0B5124B18
:100750001D46083D2E680124A6432E60032636035D
:1007600030401F68B743381818601868FF26B04338
:10077000C9B240181860286820432860186821070B
:10078000002A06D0084318600D480168C905FCD549
:10079000F0BD88431860F0BD10010B400749886028
:1007A000074802689202FCD5012212040B68134329
:1007B0000B600168C906FCD57047C04604010B40B8
:1007C00004020B40F0B57A4A82183B4BC3180879F3
:1007D0004E793A4D784C002E23D0202804D005269F
:1007E000F601002803D003E0354E002800D188260A
:1007F000576F2F4037435767976F2F40374397679F
:10080000566B26405663966B2640966300265665C7
:1008100096658F26F6435F6837405F609F68374074
:100820009F608E79096820280BD0002819D1491EB5
:100830005160D76E2F4088210F43D7661746703717
:1008400019E0491E5160D16E29401D4F3943D166D0
:10085000116F29403943116701214907194D174686
:1008600009E049085160D76E2F400521C9010F43A7
:10087000D766174670373C682C400C433C60D16A01
:100880004D4C2140D162116B214011630021D16494
:1008900011658F21C943D46F0C40D4671C680C408C
:1008A0001C600643BD2030401168074B0B40C01848
:1008B000801C1060F0BDC0468418000024493E0032
:1008C00001040000FFFFFFCF4000FFCFB0B54A6832
:1008D000364BC250364A80180A78222A58D89300DC
:1008E00001A4E3589F46C046870900009109000013
:1008F000870900009109000091090000910900009A
:10090000910900009109000091090000910900007F
:10091000910900009109000091090000910900006F
:10092000910900009109000075090000910900007B
:10093000750900009109000091090000910900006B
:10094000910900009109000091090000910900003F
:10095000910900009109000091090000910900002F
:10096000910900009109000075090000910900003B
:100970007509000003231B0704689C4301235B07E0
:10098000E318036004E003231B0704689C4304602E
:100990000B69C360CB68074C1C40C36A064D1D4001
:1009A0002B19C362097A11430160B0BD0818000019
:1009B00004180000777702008888FDFF10B5072330
:1009C0009B04194092008018024A84589C43611885
:1009D000815010BD3018000010B5029CA400001911
:1009E00011431943014A815010BDC0465018000000
:1009F00092008018014A81507047C04610180000CC
:100A000010B50122120383180C789C604B78835038
:100A10008978014A815010BD0C1100000E48014632
:100A2000103909680A0409D489030FD50B490B68EA
:100A30000C490A685B0207D5521E06E007490B689D
:100A400007490A68DB03F7D5521C0A600521C90370
:100A500002680A430260704748100A4080130A4047
:100A6000640020206C002020F0B581B000930126A6
:100A7000F302AC4D2B61B6032E61AB4F2A243C63CD
:100A80003C68E40608D53C68E40605D53C68E40605
:100A900002D53C68E406F3D42E602B602E61040A74
:100AA000E4B23C633C68E40608D53C68E40605D53E
:100AB0003C68E40602D53C68E406F3D42E602E615F
:100AC000C0B238633868C00608D53868C00605D596
:100AD0003868C00602D53868C006F3D42E602E618F
:100AE000100AC0B238633868C00608D53868C00636
:100AF00005D53868C00602D53868C006F3D42E6024
:100B00002E61D0B238633868C00608D53868C00690
:100B100005D53868C00602D53868C006F3D42E6003
:100B20002B612E612B2038633868C00608D53868E1
:100B3000C00605D53868C00602D53868C006F3D4AB
:100B40002E602B602E612331080AC0B238633868EA
:100B5000C00608D53868C00605D53868C00602D575
:100B60003868C006F3D42E602E61C8B23863386886
:100B7000C00608D53868C00605D53868C00602D555
:100B80003868C006F3D42E602E6100992331080A1C
:100B9000C0B238633868C00608D53868C00605D5C5
:100BA0003868C00602D53868C006F3D42E602E61BE
:100BB000C8B238633868C00608D53868C00605D59D
:100BC0003868C00602D53868C006F3D42E602B61A1
:100BD0002E612C2038633868C00608D53868C006F6
:100BE00005D53868C00602D53868C006F3D42E6033
:100BF0002B6001B0F0BDC046F0B589B01C4615466B
:100C00000F46521E5B1E0790FFF72EFF0694A74269
:100C100000D385E00E98079AAB1A01210B4005938B
:100C20006B420493531C0193D2430392C2B28903D3
:100C3000000AC3B2BA48BB4C029504E0089F7F1C6F
:100C4000069EB7426CD00897079EB542F6D9059E1E
:100C5000002E079F1ED0016123632768FF0608D579
:100C60002768FF0605D52768FF0602D52768FF0617
:100C7000F3D40160016122632768FF0608D5276865
:100C8000FF0605D52768FF0602D52768FF06F3D4BF
:100C90000160019F049E039DB542029D04D1CDE7F2
:100CA0000160BF1CAF42C9D0016123632668F6060C
:100CB00008D52668F60605D52668F60602D5266804
:100CC000F606F3D40160016122632668F60608D5B2
:100CD0002668F60605D52668F60602D52668F606C5
:100CE000F3D40160016123632668F60608D52668FF
:100CF000F60605D52668F60602D52668F606F3D46C
:100D00000160016122632668F606C9D52668F606E9
:100D1000C6D52668F606C3D52668F606F3D4BFE71F
:100D200009B0F0BD90320A4010B14640F0B58FB026
:100D30001E461746159C0A19531E65084219521E75
:100D400009900691FFF790FE0C956807220900288C
:100D500000D0521C624300D1E0E0A0010C3C21060F
:100D6000890E4018C3B2052B00D9D7E001200D90A1
:100D700098402B21084200D1D0E016980B9014988F
:100D8000C1B20591F1B20891000AC0B20490300AD4
:100D9000C0B20790203FF8B202900D98860300255C
:100DA0005F48604C099F0A950192024600930AE051
:100DB0000698401C0690099F0198009B039D6D1C9E
:100DC000854200D1AAE0032B039508D0012B0BD05C
:100DD000002B0DD10C200299484355490BE03020DF
:100DE00002994843504906E0029800014F4902E049
:100DF000029880014F490818401900780E9000258C
:100E000009E016607F1C0998381A0C998842CFD0E7
:100E10006D1C082DD0D00D98A8400E9908400B9954
:100E2000002928D00028EDD0384606993A460B46CE
:100E3000FFF71AFE3A4A1661079820632068C00639
:100E400008D52068C00605D52068C00602D52068F0
:100E5000C006F3D416601661089820632068C006A7
:100E6000CFD52068C006CCD52068C006C9D520687B
:100E7000C006F3D4C5E7166100281ED0079820638A
:100E80002068C00608D52068C00605D52068C006C1
:100E900002D52068C006F3D4166016610898206356
:100EA0002068C00627D52068C00624D52068C00663
:100EB00021D52068C006F3D41DE004982063206883
:100EC000C00608D52068C00605D52068C00602D532
:100ED0002068C006F3D41660166105982063206868
:100EE000C00608D52068C00605D52068C00602D512
:100EF0002068C006F3D416600A98401C0A90C0B25D
:100F00000C99FFF7D3F9002901D0EE4A80E70020C1
:100F10000A900198009B039DEA4A50E70FB0F0BD8C
:100F200090320A4010B14640D0260000E020000078
:100F30006C1C0000A0380000F0B587B006461078A1
:100F400000281DD00F460E9C06940D9C0C9D049508
:100F5000551C059462080392049A0092059A019226
:100F6000069A0292C2B2304639461C46FFF7DEFEB0
:100F7000234603983618691C287800280D46EBD1C3
:100F800007B0F0BD1D490020086048608422CA6196
:100F90001B4810230360CA600222026083220A6495
:100FA000CA6381224A660A668A60CA654A648A649C
:100FB0004A65144B9A62144ACA660A674A671A60FD
:100FC00003210903114A1160116301218907104AA5
:100FD00013680B43136011690E4B0B43136105211A
:100FE000C9030D4A136A0B43136213680B43136062
:100FF00001463039094A0A60026070472880424041
:10100000D0320A40BC80424081000C00A0120A404D
:1010100090130A400510000028100A40014C0104FA
:10102000F0B581B0194C1A492046FFF7E9FC19497F
:101030002046FFF7C7FB00250095204629462A4693
:101040002B46FFF7C9FC204629462A46FFF7B6FC87
:10105000114E204631462A46FFF7CAFC0127009769
:10106000204629462A462B46FFF7B6FC204629464D
:101070003A46FFF7A3FC204631463A46FFF7B8FC54
:10108000064887600321016001B0F0BD0020864062
:1010900060500000645000001027000000318640BE
:1010A00010B50C4C0C492046FFF7E4FA0B492046DA
:1010B000FFF7BEFA0A4841680A4A0A40426081685E
:1010C00012220A432D218A438260016801220A43C9
:1010D000026010BD00A046406C5000006E50000041
:1010E00004B1464000FCFFFF70B5184800240460BE
:1010F0000F200002164D2968814301225002081872
:1011000028600320C1432B1F1E680E401E606968C3
:101110009143696011026B688B436B6000030A2185
:10112000FFF714FB0B48FFF7AFFA286810210143C3
:101130002020814329602046FFF730FBFF2000027A
:1011400005490A6882430A6070BDC04608030B4027
:1011500004010B407850000000E400E010B50D4C95
:101160000D492046FFF74CFC0C492046FFF7AEFB2B
:101170000B480168012211430160FF200004094966
:101180000B68834303208005181808600648026036
:1011900010BDC04600008640A0500000A4500000D2
:1011A0002810864010E400E00811864080B500F069
:1011B0001BF8FFF7E7FEFFF797FFFFF731FFFFF799
:1011C000CDFFFFF76DFFB820044900220A540449FF
:1011D0000A54242003490A5480BDC04654012020EB
:1011E000700020202C012020B0B50A480A49416037
:1011F0000A4A51600A4B59600A4C61600A4D6960A5
:101200000A49016011601960216029601020FFF710
:101210000AFAB0BD00080A40030000B100280A40E5
:10122000002886400008864000A8464001000026AD
:1012300080B504480068C0B2012801D100F00EF862
:1012400080BDC0462010864002480221016002484D
:101250000160704780E200E000E100E005480168BD
:10126000084A116004490A68094B1A6000220260AA
:101270000A607047640020206C002020014800684C
:101280007047C04660002020014800687047C04693
:1012900068002020F0B585B00126B502094C256113
:1012A0000948FFF7C0F925600848FFF7BCF9334645
:1012B000F5022561B6032661054F112003903863BE
:1012C00008E0C04690320A40009F240000127A00D5
:1012D00010B146403868C00608D53868C00605D544
:1012E0003868C00602D53868C006F3D42660256089
:1012F000256126613620029038633868C00608D51B
:101300003868C00605D53868C00602D53868C006FA
:10131000F3D4266025602661702038633868C006E3
:1013200008D53868C00605D53868C00602D53868C3
:10133000C006F3D42660256126613A2038633868F8
:10134000C00608D53868C00605D53868C00602D57D
:101350003868C006F3D42660256026610520049015
:1013600038633868C00608D53868C00605D53868BF
:10137000C00602D53868C006F3D426602561266110
:10138000B22038633868C00608D53868C00605D56D
:101390003868C00602D53868C006F3D426602560D8
:1013A00026610C2038633968C90608D53968C90632
:1013B00005D53968C90602D53968C906F3D426604F
:1013C000266138633868C00608D53868C00605D578
:1013D0003868C00602D53868C006F3D42660266196
:1013E000002139633868C00608D53868C00605D5BD
:1013F0003868C00602D53868C006F3D42660266176
:1014000033223A633868C00608D53868C00605D567
:101410003868C00602D53868C006F3D42660266155
:101420003A633868C00608D53868C00605D53868FC
:10143000C00602D53868C006F3D42660256126614F
:10144000B72038633868C00608D53868C00605D5A7
:101450003868C00602D53868C006F3D42660256017
:101460002661352038633868C00608D53868C0065C
:1014700005D53868C00602D53868C006F3D42660A2
:1014800025612661BB2038633868C00608D53868F6
:10149000C00605D53868C00602D53868C006F3D442
:1014A0002660256026611A2038633868C00608D592
:1014B0003868C00605D53868C00602D53868C00649
:1014C000F3D4266025612661C02038633868C006E1
:1014D00008D53868C00605D53868C00602D5386812
:1014E000C006F3D42660256026612C203863386856
:1014F000C00608D53868C00605D53868C00602D5CC
:101500003868C006F3D4266025612661C22038639E
:101510003868C00608D53868C00605D53868C006E2
:1015200002D53868C006F3D42660256026613B6387
:101530003868C00608D53868C00605D53868C006C2
:1015400002D53868C006F3D4266025612661C32021
:1015500038633868C00608D53868C00605D53868CD
:10156000C00602D53868C006F3D42660256026611F
:101570000B20009038633868C00608D53868C0066C
:1015800005D53868C00602D53868C006F3D4266091
:1015900025612661C42038633868C00608D53868DC
:1015A000C00605D53868C00602D53868C006F3D431
:1015B000266025602661202038633868C00608D57B
:1015C0003868C00605D53868C00602D53868C00638
:1015D000F3D4266025612661C62038633868C006CA
:1015E00008D53868C00605D53868C00602D5386801
:1015F000C006F3D42660256026610F203863386862
:10160000C00608D53868C00605D53868C00602D5BA
:101610003868C006F3D4266025612661D02038637F
:101620003868C00608D53868C00605D53868C006D1
:1016300002D53868C006F3D4266025602661A42050
:1016400038633868C00608D53868C00605D53868DC
:10165000C00602D53868C006F3D426602661A120F2
:1016600038633868C00608D53868C00605D53868BC
:10167000C00602D53868C006F3D42660256126610D
:10168000212038633868C00608D53868C00605D5FB
:101690003868C00602D53868C006F3D426602560D5
:1016A00025612661E02038633868C00608D53868AF
:1016B000C00605D53868C00602D53868C006F3D420
:1016C000266025602661F0233B633868C00608D594
:1016D0003868C00605D53868C00602D53868C00627
:1016E000F3D42660266139633868C00608D53868A7
:1016F000C00605D53868C00602D53868C006F3D4E0
:1017000026602661042038633968C90608D539681F
:10171000C90605D53968C90602D53968C906F3D4A2
:101720002660266138633968C90608D53968C90654
:1017300005D53968C90602D53968C906F3D42660CB
:10174000266138633868C00608D53868C00605D5F4
:101750003868C00602D53868C006F3D42660266112
:10176000049838633868C00608D53868C00605D5BF
:101770003868C00602D53868C006F3D426602661F2
:101780002920049038633868C00608D53868C00638
:1017900005D53868C00602D53868C006F3D426607F
:1017A00026613A633868C00608D53868C00605D592
:1017B0003868C00602D53868C006F3D426602661B2
:1017C0003E2139633868C00608D53868C00605D59B
:1017D0003868C00602D53868C006F3D40192266086
:1017E0002661382038633868C00608D53868C006D6
:1017F00005D53868C00602D53868C006F3D426601F
:101800002661122038633A68D20608D53A68D206B3
:1018100005D53A68D20602D53A68D206F3D42660D6
:10182000266138633868C00608D53868C00605D513
:101830003868C00602D53868C006F3D42660266131
:10184000282038633A68D20608D53A68D20605D50A
:101850003A68D20602D53A68D206F3D426602661E9
:1018600030223A633A68D20608D53A68D20605D5DE
:101870003A68D20602D53A68D206F3D426602561CA
:101880002661E1223A633A68D20608D53A68D20660
:1018900005D53A68D20602D53A68D206F3D4266056
:1018A000256026613B633A68D20608D53A68D206BD
:1018B00005D53A68D20602D53A68D206F3D4266036
:1018C000266107233B633A68D20608D53A68D206F8
:1018D00005D53A68D20602D53A68D206F3D4266016
:1018E00026610A223A633A68D20608D53A68D206D7
:1018F00005D53A68D20602D53A68D206F3D42660F6
:1019000026610D223A633A68D20608D53A68D206B3
:1019100005D53A68D20602D53A68D206F3D42660D5
:101920002661009A3A633A68D20608D53A68D20628
:1019300005D53A68D20602D53A68D206F3D42660B5
:1019400026613B633A68D20608D53A68D20605D5C7
:101950003A68D20602D53A68D206F3D426602661E8
:1019600038633868C00608D53868C00605D53868B9
:10197000C00602D53868C006F3D4266026610198F7
:1019800038633868C00608D53868C00605D5386899
:10199000C00602D53868C006F3D4266026613963D4
:1019A0003868C00608D53868C00605D53868C0064E
:1019B00002D53868C006F3D42660266102983863E1
:1019C0003868C00608D53868C00605D53868C0062E
:1019D00002D53868C006F3D4266026611420386327
:1019E0003968C90608D53968C90605D53968C906F0
:1019F00002D53968C906F3D4266026613863386891
:101A0000C00608D53868C00605D53868C00602D5B6
:101A10003868C006F3D426602661049838633868B5
:101A2000C00608D53868C00605D53868C00602D596
:101A30003868C006F3D426602661322038633868DF
:101A4000C00608D53868C00605D53868C00602D576
:101A50003868C006F3D42660256126610398386390
:101A60003868C00608D53868C00605D53868C0068D
:101A700002D53868C006F3D4266025600B48FEF70F
:101A8000D2FD25612661049838633868C00608D500
:101A90003868C00605D53868C00602D53868C00663
:101AA000F3D42660256005B0F0BDC046007C9200EE
:101AB00096B0FFF77BFBFFF7EDFB1F200490009033
:101AC000052082010024AA2320462146FFF794F82E
:101AD0000125A8065D490860FFF7B6FB00F0BAF8DB
:101AE0000EA88483149413941294119410940F9458
:101AF0000E9406A884830C940B940A940994089479
:101B0000079403940694194F284639462A4600F054
:101B100035F8022039462A4600F030F8039FFFF7D7
:101B2000ADFB02460EA80590124C2146FEF73EFB87
:101B3000FFF7AAFB024606AD28462146FEF736FB14
:101B40002026049C00A8D0C032213846059A084BB4
:101B5000FFF7F2F900A8D0C0384639462A46044BB0
:101B6000FFF7EAF90448FEF75EFDD8E788130000A6
:101B7000FFFF0000B8500000006A180070B514465E
:101B800002281AD001285BD12E48814200DB014691
:101B9000C81781432C4D00222846FEF729FF032C4D
:101BA0004ED8C0467C4424796400A744011E252CED
:101BB00001204103264A116122E02248814200DBD4
:101BC0000146C8178143204E012530462A46FEF7BC
:101BD0000FFF032C34D8C0467C4424796400A7440A
:101BE000011C2126194805611EE001200103184A45
:101BF00011614003106070BD01204103144A11605F
:101C00000003106070BD01204103114A11610003FF
:101C10001061002128460A4610E028040B4908619B
:101C20000D6070BD094805602904016070BD07485A
:101C3000056129040161002130462A46FEF7D8FEDD
:101C400070BDC0460F2700000020864090320A4039
:101C500090120A400120800402490860024908608D
:101C60007047C04680E200E000E100E000000000B4
:101C70000000000000000000000004040404040050
:101C80000004000014140A0000000000000000001E
:101C900000000A0A1F0A0A1F0A0A000000040E15A3
:101CA00005060C14150E0400000012150D152E2C3F
:101CB0002A1200000000040A0A3615152916000031
:101CC00002020100000000000000000010080804EB
:101CD00004040404080810000204040808080808A2
:101CE0000404020000000004150E0E15040000009C
:101CF00000000008083E0808000000000000000086
:101D0000000000000202010000000000003F00008F
:101D100000000000000000000000000000020000C1
:101D200000201010080804040202010000000E1137
:101D300011111111110E0000000004060404040426
:101D4000040E000000000E1111080402011F000023
:101D500000000E11100C1010110E00000000080CF5
:101D60000C0A091F081C000000001F01010F1110C0
:101D7000110E000000000C12010D1311110E0000D5
:101D800000001E10080804040404000000000E11E6
:101D9000110E1111110E000000000E111119161074
:101DA000090600000000000004000000000400001C
:101DB00000000000000400000004040000001008FF
:101DC0000402020408100000000000003F003F0071
:101DD00000000000000002040810100804020000C7
:101DE00000000E11110804040004000000001C2271
:101DF000292D2D1D221C0000000004040C0A0A1EBF
:101E00001233000000000F12120E1212120F000007
:101E100000001E1101010101110E000000000F124F
:101E200012121212120F000000001F120A0E0A02F4
:101E3000121F000000001F120A0E0A020207000013
:101E400000001C1201013911120C000000003312B5
:101E5000121E12121233000000001F0404040404B6
:101E6000041F000000003E080808080808080907C9
:101E7000000037120A060A1212370000000007029B
:101E800002020202223F000000003B1B1B1B151533
:101E90001535000000003B1216161A1A1217000022
:101EA00000000E1111111111110E000000000F128F
:101EB000120E02020207000000000E11111111178C
:101EC000190E180000000F12120E0A12123700002D
:101ED00000001E1101060810110F000000001F1560
:101EE00004040404040E0000000033121212121243
:101EF000120C000000003312120A0A0C0404000045
:101F00000000151515150E0A0A0A000000001B0A2C
:101F10000A04040A0A1B000000001B0A0A0A04043F
:101F2000040E000000001F0908040402121F000034
:101F30001C0404040404040404041C00000202043D
:101F400004040808081010000E080808080808080B
:101F500008080E00040A0000000000000000000055
:101F600000000000000000000000003F020400002C
:101F7000000000000000000000000000000C121C27
:101F8000123C000000030202020E1212120E0000A8
:101F900000000000001C1202120C000000181010BB
:101FA000101C1212123C000000000000000C121E57
:101FB000021C000000182404041E0404041E000077
:101FC00000000000003C120C021C221C0003020254
:101FD000020E12121237000000040400000604046E
:101FE000040E000000080800000C08080808080794
:101FF00000030202021A0A060A1300000007040482
:1020000004040404041F000000000000000F151564
:102010001515000000000000000F1212123700001A
:1020200000000000000C1212120C00000000000062
:10203000000F1212120E020700000000001C121204
:10204000121C103800000000001B060202070000EE
:1020500000000000001E020C101E00000000000422
:10206000041E0404041C000000000000001B1212E7
:10207000123C000000000000001B0A0A04040000DB
:10208000000000000015150E0A0A00000000000004
:10209000001B0A040A1B000000000000003312129B
:1020A0000C08040300000000001E0804041E0000C9
:1020B00018080808080C0808080818000808080884
:1020C00008080808080808080604040404080404AA
:1020D00004040600160900000000000000000000D3
:1020E00000000000000000000000000000000000F0
:1020F0000000000808080808080800001818000078
:1021000000486C24120000000000000000000000E5
:102110000000002424247F1212127F1212120000E9
:102120000000081C2A2A0A0C1828282A2A1C080839
:1021300000000022251515152A5854545422000079
:102140000000000C1212120A76252911916E00006F
:10215000000606040300000000000000000000006C
:10216000004020101008080808080810102040003F
:1021700000020408081010101010100808040200D3
:102180000000000008086B1C1C6B08080000000021
:1021900000000000080808087F0808080800000080
:1021A000000000000000000000000000060604031C
:1021B0000000000000000000FE0000000000000021
:1021C0000000000000000000000000000606000003
:1021D0000000804040202010100808040402020083
:1021E00000000018244242424242424224180000A9
:1021F000000000080E08080808080808083E00004B
:102200000000003C4242422020100804427E0000B0
:102210000000003C4242201820404042221C0000A6
:10222000000000203028242422227E202078000074
:102230000000007E0202021A26404042221C0000DA
:10224000000000382402021A2642424224180000EC
:102250000000007E2222101008080808080800006C
:102260000000003C4242422418244242423C00000A
:10227000000000182442424264584040241C0000E0
:1022800000000000000018180000000018180000EE
:102290000000000000000008000000000008080422
:1022A0000000004020100804020408102040000034
:1022B0000000000000007F0000007F000000000020
:1022C0000000000204081020402010080402000052
:1022D0000000003C42424640201010001818000048
:1022E0000000001C225A555555552D42221C000055
:1022F0000000000808181414243C224242E70000A1
:102300000000001F2222221E22424242221F000001
:102310000000007C4242010101010142221C000038
:102320000000001F2242424242424242221F00005D
:102330000000003F4212121E12120242423F0000F1
:102340000000003F4212121E121202020207000099
:102350000000003C2222010101712122221C000008
:10236000000000E7424242427E42424242E7000011
:102370000000003E0808080808080808083E000099
:102380000000007C10101010101010101010110F11
:102390000000007722120A0E0A1212222277000091
:1023A000000000070202020202020202427F000055
:1023B00000000077363636362A2A2A2A2A6B000091
:1023C000000000E346464A4A525252626247000009
:1023D0000000001C2241414141414141221C0000BA
:1023E0000000003F424242423E0202020207000059
:1023F0000000001C2241414141414D53321C60000C
:102400000000003F4242423E1212222242C7000018
:102410000000007C4242020418204042423E00007C
:102420000000007F4908080808080808081C000088
:10243000000000E74242424242424242423C000027
:10244000000000E742422224241414180808000067
:102450000000006B494949495555362222220000A7
:10246000000000E7422424181818242442E7000042
:10247000000000772222141408080808081C000035
:102480000000007E2120101008040442423F00009A
:1024900000780808080808080808080808087800EC
:1024A0000000020204040808081010202020404008
:1024B000001E1010101010101010101010101E0020
:1024C0000038440000000000000000000000000090
:1024D000000000000000000000000000000000FFFD
:1024E00000060800000000000000000000000000DE
:1024F000000000000000003C4278444242FC000022
:10250000000000030202021A26424242261A00007C
:1025100000000000000000384402020244380000BD
:1025200000000060404040784442424264D80000CD
:10253000000000000000003C427E0202423C00001D
:10254000000000F08808087E08080808083E00001F
:10255000000000000000007C22221C023C42423CA1
:10256000000000030202023A4642424242E70000F3
:102570000000000C0C00000E08080808083E0000CF
:102580000000003030000038202020202020221EB3
:102590000000000302020272120A161222770000E3
:1025A0000000000E0808080808080808083E000097
:1025B000000000000000007F9292929292B700000B
:1025C000000000000000003B4642424242E700009B
:1025D000000000000000003C42424242423C000039
:1025E000000000000000001B26424242221E02079B
:1025F000000000000000007844424242447840E07D
:1026000000000000000000774C040404041F0000D8
:10261000000000000000007C42023C40423E0000FE
:10262000000000000008083E080808080830000004
:1026300000000000000000634242424262DC0000F1
:1026400000000000000000E74224241408080000F5
:1026500000000000000000EB49495555222200000F
:10266000000000000000007624181818246E0000F6
:1026700000000000000000E74224241418080807A6
:10268000000000000000007E22100808447E0000C8
:1026900000C0202020202010202020202020C0004A
:1026A000101010101010101010101010101010102A
:1026B00000060808080808100808080808080600A6
:1026C0000C32C2000000000000000000000000000A
:1026D00000000000000000000000000000000000FA
:1026E00000000000000000000000000000000000EA
:1026F00000000000000000000000000000000000DA
:102700000000000000000000600060006000600049
:1027100060006000600040002000200020000000F9
:102720000000000060006000600000000000000089
:102730000000000060066006300398018800440035
:102740000000000000000000000000000000000089
:102750000000000000000000000000000000000079
:102760000000000000000000100210021002100221
:10277000FE07FE0708020801080108010801FE071C
:10278000FE07040104010401040100000000000030
:1027900000000000000040004000F00158034C031E
:1027A000CC034C0058007000E000C001C0014003A1
:1027B0004C035C034C034801F00040004000000063
:1027C00000000000000000000E010A0191009100CD
:1027D0009100510051003A00AE03A0025004500491
:1027E00048044804480484028403000000000000F8
:1027F000000000000000000038006C006C006C005D
:102800006C006C002C0098071C011A013301330185
:102810006301E300C308C6093C0700000000000094
:10282000000000000C001C00100010000800040054
:102830000000000000000000000000000000000098
:102840000000000000000000000000000000000088
:102850000000000000040002000180008000400031
:102860004000200020002000200020002000200048
:1028700040004000800080000001000200040000D1
:1028800000000000020004000800100010002000FA
:102890002000400040004000400040004000400058
:1028A00020002000100010000800040002000000BA
:1028B0000000000000000000000000004000C00018
:1028C0004000460C4E0FD001F0015E0F460C400058
:1028D0004000400000000000000000000000000078
:1028E00000000000000000000000000000004000A8
:1028F0004000400040004000FE0F4000400040000B
:102900004000400000000000000000000000000047
:1029100000000000000000000000000000000000B7
:1029200000000000000000000000000000000000A7
:10293000000000000C001C00100010000800040043
:102940000000000000000000000000000000000087
:102950000000000000000000FE0700000000000072
:102960000000000000000000000000000000000067
:102970000000000000000000000000000000000057
:102980000000000000000000000000000000000047
:10299000000000001C001C001C00000000000000E3
:1029A0000000000000040006000200030001000116
:1029B00080008000400040006000200020001000E7
:1029C0001000080008000C000400060002000000CF
:1029D00000000000000000000000F00098010C035F
:1029E0000C03060606060606060606060606060684
:1029F00006060C030C039801F00000000000000024
:102A00000000000000000000000040007C006000AA
:102A100060006000600060006000600060006000B6
:102A20006000600060006000FC0300000000000027
:102A300000000000000000000000F8008401020314
:102A400006030603000300018001C00060002000AF
:102A50001000080204020602FE030000000000004D
:102A6000000000000000000000007800C6008601A1
:102A7000860180018001C000700080010001000318
:102A80000003060306038601F800000000000000B2
:102A90000000000000000000000080018001C00173
:102AA000A001A00190018801880184018201FE0F2C
:102AB0008001800180018001E0070000000000002B
:102AC00000000000000000000000FC0304000400FF
:102AD000040004000400F4008C010403000300035C
:102AE0000603060382018401F800000000000000D4
:102AF00000000000000000000000E00118030C03CB
:102B00000C0004000600E60116030E060606060683
:102B1000060604060C021803F00000000000000086
:102B200000000000000000000000F8070C0604028E
:102B300004010001000180008000400040004000CE
:102B400060006000600060006000000000000000A5
:102B500000000000000000000000F8010C03060661
:102B6000060606060C021C03F000C8010C0306064C
:102B70000606060606060C03F00100000000000031
:102B800000000000000000000000F0000C010C0339
:102B9000060206060606060606078C0678060006E6
:102BA000000300030C018C0178000000000000000D
:102BB0000000000000000000000000000000000015
:102BC00000000000E000E000E00000000000000065
:102BD00000000000E000E000E00000000000000055
:102BE00000000000000000000000000000000000E5
:102BF0000000000060006000000000000000000015
:102C00000000000000006000600040002000200084
:102C1000000000000000000000040002000180002D
:102C200040002000100008000400080010002000F0
:102C300040008000000100020004000000000000CD
:102C40000000000000000000000000000000000084
:102C500000000000FE07000000000000FE0700006A
:102C60000000000000000000000000000000000064
:102C70000000000000000000040008001000200018
:102C800040008000000100020004000200018000FA
:102C900040002000100008000400000000000000B8
:102CA00000000000000000000000E0031806040C13
:102CB000040C0C0C0C0C000780014000400040008C
:102CC00000000000E000E000E00000000000000064
:102CD0000000000000000000E00018030C02CC051A
:102CE00064056605A605B604B604B604B604B602C5
:102CF000E4010C040C021803F000000000000000C6
:102D000000000000000000000000600060005000B3
:102D1000D00090009000880088010801F8010403A9
:102D200004030402020202060F0F0000000000006C
:102D300000000000000000000000FE008C030C03F7
:102D40000C030C030C038C01FC000C030C020C069E
:102D50000C060C060C060C03FE010000000000002F
:102D600000000000000000000000E00318030C0653
:102D70000C04040406000600060006000600060017
:102D800006040C040C021803F00000000000000010
:102D9000000000000000000000007F008C010C0318
:102DA0000C030C060C060C060C060C060C060C0696
:102DB0000C060C030C038C017F00000000000000D7
:102DC00000000000000000000000FF0306030604EE
:102DD0000604060086008600FE0086008600860047
:102DE0000600060406040602FF03000000000000BF
:102DF00000000000000000000000FF0306030604BE
:102E00000604060086008600FE0086008600860016
:102E100006000600060006001F000000000000007B
:102E200000000000000000000000F00018010C028B
:102E30000C0204020600060006000600C60F060388
:102E400006030C030C031803F00000000000000050
:102E5000000000000000000000000F0F060606063C
:102E60000606060606060606FE0706060606060609
:102E700006060606060606060F0F00000000000004
:102E800000000000000000000000FC036000600083
:102E90006000600060006000600060006000600032
:102EA0006000600060006000FC03000000000000A3
:102EB00000000000000000000000F807C000C00093
:102EC000C000C000C000C000C000C000C000C00002
:102ED000C000C000C000C000C000C60066003C00CA
:102EE00000000000000000000000CF038601C600C3
:102EF00046002600160036002E006E004600C60072
:102F000086008601060106038F070000000000000E
:102F1000000000000000000000001F000600060086
:102F20000600060006000600060006000600060071
:102F30000600060406040602FF030000000000006D
:102F40000000000000000000000007078603860361
:102F50008E038E034E034E034A035A035A033A0369
:102F6000320332033203120387070000000000001F
:102F7000000000000000000000008E0F0C021C0288
:102F80001C0234023402640264024402C402840259
:102F900084038403040304031F02000000000000F4
:102FA00000000000000000000000F00098010C0389
:102FB0000C020606060606060606060606060606AF
:102FC00006060C020C039801F0000000000000004F
:102FD00000000000000000000000FF0006030606DD
:102FE00006060606060606068603FE00060006001E
:102FF00006000600060006001F000000000000009A
:1030000000000000000000000000F00098010C0328
:103010000C0206060606060606060606060606064E
:1030200076064C02CC039801F000800700030000F4
:1030300000000000000000000000FF01060306067B
:103040000606060606060603FE004600C6008600C3
:1030500086010603060306060F0E000000000000AE
:1030600000000000000000000000F8020C0306024F
:10307000060206000E003C00F800E0038003000793
:103080000206020606060C03F00100000000000024
:1030900000000000000000000000FE07620461085C
:1030A0006108600060006000600060006000600017
:1030B0006000600060006000F80100000000000097
:1030C000000000000000000000001E070C020C02BF
:1030D0000C020C020C020C020C020C020C020C0280
:1030E0000C020C020C021801F000000000000000AD
:1030F000000000000000000000000F0706020401AD
:1031000004010C010C018800880098009800500010
:10311000500070003000200020000000000000007F
:1031200000000000000000000000F70E62044204EE
:103130004604460464026402E402E4029C029C0128
:1031400098019801880188008800000000000000B4
:10315000000000000000000000009E070C010801B4
:1031600018019000B0006000200060006000D000F6
:1031700090008801080104038E0700000000000091
:10318000000000000000000000000F0F0604040211
:103190000C0208011801B800B00070006000600067
:1031A0006000600060006000F801000000000000A6
:1031B00000000000000000000000FC070C020603F5
:1031C000020180018000400040002000200010002B
:1031D000180008040C040402FE03000000000000B4
:1031E00000000000E003200020002000200020005C
:1031F00020002000200020002000200020002000CF
:10320000200020002000200020002000E00300001B
:103210000000000000000000040004000800080096
:103220001000100010002000200040004000C000EE
:103230008000800000010001000200020002000482
:10324000000000007C0040004000400040004000C2
:10325000400040004000400040004000400040006E
:103260004000400040004000400040007C00000062
:103270000000600090000801000000000000000055
:10328000000000000000000000000000000000003E
:10329000000000000000000000000000000000002E
:1032A000000000000000000000000000000000001E
:1032B000000000000000000000000000000000000E
:1032C0000000000000000000000000000000FF0FF0
:1032D0000000000018006000000000000000000076
:1032E00000000000000000000000000000000000DE
:1032F00000000000000000000000000000000000CE
:1033000000000000000000000000000000000000BD
:1033100000000000F0010C030C030003E0031C0399
:103320000E03060306038E0B7C0E00000000000057
:10333000000000000000000008000E000C000C005F
:103340000C000C00CC013C031C060C060C060C0601
:103350000C060C060C021C03E40100000000000037
:10336000000000000000000000000000000000005D
:1033700000000000F0008C018C01860106000600B0
:10338000060006020C020C01F00000000000000024
:1033900000000000000000000002C0030003000362
:1033A0000003000378038C030C03060306030603E3
:1033B0000603060304038C077801000000000000E8
:1033C00000000000000000000000000000000000FD
:1033D00000000000E001180308020C060C06FC07C0
:1033E0000C000C0018041802E001000000000000AE
:1033F00000000000000000000000C003600630066E
:1034000030003000FE01300030003000300030006D
:103410003000300030003000FC01000000000000EF
:10342000000000000000000000000000000000009C
:1034300000000000F007D8068C018C018C01980177
:10344000F8000C00FC00CC03060306038E03F80012
:10345000000000000000000008000E000C000C003E
:103460000C000C00EC011C030C030C030C030C03FC
:103470000C030C030C030C039E070000000000006B
:10348000000000000000000000006000600000007C
:10349000000040007C006000600060006000600090
:1034A0006000600060006000FC030000000000009D
:1034B00000000000000000000000C001C00100008A
:1034C00000000001F0018001800180018001800185
:1034D000800180018001800180018001CC007C009E
:1034E000000000000000000008000E000C000C00AE
:1034F0000C000C008C038C008C004C006C005C00F9
:103500008C008C010C010C039E07000000000000E1
:10351000000000000000000040007C00600060002F
:10352000600060006000600060006000600060009B
:103530006000600060006000FC030000000000000C
:10354000000000000000000000000000000000007B
:10355000000000003707EE06660666066606660689
:103560006606660666066606FF0F0000000000009D
:10357000000000000000000000000000000000004B
:1035800000000000EE011C030C030C030C030C03F1
:103590000C030C030C030C039E070000000000004A
:1035A000000000000000000000000000000000001B
:1035B00000000000F00098010C030606060606064F
:1035C000060606060C030C03F000000000000000D5
:1035D00000000000000000000000000000000000EB
:1035E00000000000EE011C030C060C060C060C0685
:1035F0000C060C060C031C03EC010C000C003E0036
:1036000000000000000000000000000000000000BA
:103610000000000078028C030C0306030603060377
:103620000603060304038C03780300030003C007AA
:10363000000000000000000000000000000000008A
:10364000000000009F0358063806180018001800F4
:103650001800180018001800FF000000000000000B
:10366000000000000000000000000000000000005A
:1036700000000000F0031C030C020C023800F000F4
:10368000C003040304038C03FC01000000000000DD
:1036900000000000000000000000000020002000EA
:1036A00030003000FE0130003000300030003000CB
:1036B0003000300030023002E00100000000000065
:1036C00000000000000000000000000000000000FA
:1036D000000008028E030C030C030C030C030C0304
:1036E0000C030C030C039C07780100000000000091
:1036F00000000000000000000000000000000000CA
:10370000000000001E070C020801080118019000CB
:10371000B000B00060006000200000000000000069
:103720000000000000000000000000000000000099
:1037300000000000F70E6204460464026402EC021A
:103740009C01980198019801080000000000000009
:103750000000000000000000000000000000000069
:1037600000000000BC0718011001B00060006000FC
:10377000E0009000080108039E0700000000000020
:103780000000000000000000000000000000000039
:10379000000000009E070801080108019000900049
:1037A000B0006000600060002000200024001C00C9
:1037B0000000000000000000000000000000000009
:1037C00000000000FC018401C400440060002000EF
:1037D0003000180208020C03FC0100000000000089
:1037E0000000000000038000800080008000800056
:1037F00080008000800040002000400080008000A9
:1038000080008000800080008000800000030000B5
:1038100040004000400040004000400040004000A8
:103820004000400040004000400040004000400098
:103830004000400040004000400040004000400088
:10384000000000000C00100010001000100010001C
:103850001000100010002000400020001000100098
:103860001000100010001000100010000C000000EC
:1038700000001C002204C2048003000000000000BD
:103880000000000000000000000000000000000038
:103890000000000000000000000000000000000028
:1038A0000000000000000000000000000000000018
:1038B0000000000000000000000000000000000008
:1038C00000000000000000000000000000000000F8
:1038D00000000000000000000000000000000000E8
:1038E00000000000000000000000C001C001C00195
:1038F000C001C001C001C0018000800080008000C4
:1039000080008000800000000000000000008001B6
:10391000C003C003800100000000000000000000A0
:10392000000000000000E01CE01CF01E700E3807D4
:1039300018030801840000000000000000000000DF
:103940000000000000000000000000000000000077
:103950000000000000000000000000000000000067
:1039600000000000000000000000000020102010F7
:10397000201020102010FE7FFE7F10081008100875
:103980001008100810081008FE7FFE7F08040804C5
:103990000804080408040000000000000000000003
:1039A000000000000000000000010001C0076019D5
:1039B000103118311839183938017001E001C0038D
:1039C0008007000F001D003900311C311C310C3103
:1039D0000C11180DE00700010001000100000000BB
:1039E0000000000000000000000000001C1036185D
:1039F0006308630C63046304630263026301361D9E
:103A00009C3780228063406340632063206330637F
:103A100010221836081C0000000000000000000002
:103A2000000000000000000000000000F00098010D
:103A30008C018C018C018C018C00CC007800183E2C
:103A40001C083608320863046304C304C3038343B9
:103A500006438E26781C00000000000000000000D5
:103A60000000000000001C003C003C003000300062
:103A700010000C0006000000000000000000000024
:103A80000000000000000000000000000000000036
:103A90000000000000000000000000000000000026
:103AA0000000000000000040002000100008000C92
:103AB0000004000600030003000380018001800170
:103AC0008001800180018001800100030003000368
:103AD00000060006000C0008001000200040000056
:103AE0000000000000000200040008001000300088
:103AF00020006000C000C000C00080018001800183
:103B000080018001800180018001C000C000C000F0
:103B10006000600030001000080004000200000097
:103B20000000000000000000000000000000000095
:103B300000018003800300011C713C79783DC007BF
:103B40000001C007783D3C791C71000180038003AF
:103B500080010000000000000000000000000000E4
:103B60000000000000000000000000000000000055
:103B7000000000010001000100010001000100013E
:103B8000FC7F0001000100010001000100010001B3
:103B90000000000000000000000000000000000025
:103BA0000000000000000000000000000000000015
:103BB0000000000000000000000000000000000005
:103BC00000000000000000000000000000000000F5
:103BD0001C003C003C003000300010000C000600CF
:103BE00000000000000000000000000000000000D5
:103BF00000000000000000000000000000000000C5
:103C0000FE7F000000000000000000000000000037
:103C100000000000000000000000000000000000A4
:103C20000000000000000000000000000000000094
:103C30000000000000000000000000000000000084
:103C4000000000000000000000000000000018005C
:103C50003C003C00180000000000000000000000D4
:103C60000000000000000040006000200030001054
:103C700000180008000C0004000600020003000108
:103C800080018000C0004000600020003000100073
:103C9000180008000C0004000600020000000000EC
:103CA000000000000000000000000000C007600CE1
:103CB00030181830183018200C600C600C600C6044
:103CC0000C600C600C600C600C6018201830183010
:103CD0003018600CC0070000000000000000000069
:103CE0000000000000000000000000000001800152
:103CF000F801800180018001800180018001800144
:103D000080018001800180018001800180018001AB
:103D10008001C003F81F0000000000000000000048
:103D2000000000000000000000000000E007101C80
:103D30000818043004300C300C3000300018000833
:103D40000004000200018000400020201020082014
:103D50000430FC1FFC1F00000000000000000000F9
:103D6000000000000000000000000000E003180E4A
:103D70000C0C0C180C180C180018000C0006C003D2
:103D8000000E00180010003000300C300C300C1009
:103D90000C18180CE00300000000000000000000F8
:103DA000000000000000000000000000000C000EF9
:103DB000000E000F800E800E400E600E200E100EC2
:103DC000100E080E040E040EFE7F000E000E000EF4
:103DD000000E000E000EC07F00000000000000007A
:103DE000000000000000000000000000F03FF03F75
:103DF00010001000100008000800C807280C181850
:103E0000081000300030003000300C300C30041846
:103E10000418080CF003000000000000000000007F
:103E2000000000000000000000000000800FC01033
:103E3000203010301800180008000C008C0F6C188F
:103E40003C301C600C600C600C600C60186018202A
:103E500030306018C00700000000000000000000C3
:103E6000000000000000000000000000F83FF83FE4
:103E70001C100C08040804040004000200020001E5
:103E800000010001800080008000C000C000C00070
:103E9000C000C000C00000000000000000000000E2
:103EA000000000000000000000000000E007300CEF
:103EB00018180C300C300C301C3038187008E00723
:103EC000B007180E0C1C06380630063006300630D7
:103ED0000C18180CE00300000000000000000000B7
:103EE000000000000000000000000000E0031804D3
:103EF0000C080C180610063006300630063006385E
:103F00000C3C1836F03100300018001800180C0C6A
:103F10000C060C03F001000000000000000000008F
:103F20000000000000000000000000000000000091
:103F3000000000000000000000008001C003C0037A
:103F4000800100000000000000000000000080016F
:103F5000C003C0038001000000000000000000005A
:103F60000000000000000000000000000000000051
:103F700000000000000000000000C000C0000000C1
:103F80000000000000000000000000000000000031
:103F90000000C000C0008000800040004000000021
:103FA00000000000000000000000002000100008D9
:103FB0000004000600038001C0006000300018000B
:103FC0000C00180030006000C000800100030006F3
:103FD00000040008001000200000000000000000A5
:103FE00000000000000000000000000000000000D1
:103FF00000000000000000000000FE7F0000000044
:10400000000000000000FE7F000000000000000033
:1040100000000000000000000000000000000000A0
:104020000000000000000000000004000800100074
:1040300020006000C000800100030006000C001892
:1040400000300018000C000600038001C000600072
:104050002000100008000400000000000000000024
:1040600000000000000000000000C0073018083009
:1040700008600C601C601C601C600030001C0006A6
:1040800000018000800080008000000000008001AE
:10409000C003C00380010000000000000000000019
:1040A000000000000000000000000000C0076018D1
:1040B000103018200C2F8C4D864CC64CC64C664CCC
:1040C00066446644662666266615CC1C0C400820AD
:1040D00018303018C0070000000000000000000089
:1040E000000000000000000000000001C001C0014D
:1040F000C0014001600320032003200330061006A6
:1041000010061006F80F080C080C080C0C0C04180C
:10411000041806181F7C00000000000000000000CA
:10412000000000000000000000000000FE07181C56
:10413000183818301830183018301818180CF807BC
:104140001818183018201860186018601860186067
:1041500018301818FE0F00000000000000000000DA
:10416000000000000000000000000000C0276038D0
:10417000103018200C400C40040006000600060019
:10418000060006000600060006000C400C400C204D
:1041900018303018C00700000000000000000000C8
:1041A000000000000000000000000000FE03180EE8
:1041B0001818183018301830186018601860186017
:1041C00018601860186018601860183018301810DF
:1041D0001818180EFE030000000000000000000088
:1041E000000000000000000000000000FE3F18304A
:1041F000182018601840180018081808180CF80F34
:10420000180C180818081800180018001840184052
:1042100018201830FE3F00000000000000000000E1
:10422000000000000000000000000000FE7F187089
:10423000184018C018801800181018101818F81F07
:104240001818181018101800180018001800180076
:10425000180018007E0000000000000000000000B0
:10426000000000000000000000000000C013701CEF
:10427000101018100C200C20040006000600060088
:104280000600060006FC063006300C300C301830F4
:1042900018303008C00700000000000000000000D7
:1042A0000000000000000000000000003F7E0C182D
:1042B0000C180C180C180C180C180C180C180C18DE
:1042C000FC1F0C180C180C180C180C180C180C18D7
:1042D0000C180C183F7E00000000000000000000D9
:1042E000000000000000000000000000F81F800136
:1042F00080018001800180018001800180018001B6
:1043000080018001800180018001800180018001A5
:1043100080018001F81F0000000000000000000084
:10432000000000000000000000000000E07F000628
:10433000000600060006000600060006000600064D
:10434000000600060006000600060006000600063D
:1043500000060006000600060E060E038E01FC0095
:104360000000000000000000000000007E7C181823
:104370001808180418061802180198019801D801A5
:10438000B803380318071806180E180C181C18184C
:10439000183018307EFC0000000000000000000013
:1043A0000000000000000000000000007E00180077
:1043B000180018001800180018001800180018003D
:1043C00018001800180018001800180018401840AD
:1043D00018201830FE3F0000000000000000000020
:1043E0000000000000000000000000001FF81C3862
:1043F0001C381C381C3C3434343434343436743275
:104400006432643264326431C431C431C431C43082
:10441000C43084309FFC0000000000000000000059
:104420000000000000000000000000001F7C1C10C5
:104430003C103410341074106410E410C410C41113
:1044400084118413041304170416041E041C041C92
:10445000041C04181F1800000000000000000000E9
:10446000000000000000000000000000C003300C4D
:10447000181808100C300C300660066006600660E4
:10448000066006600660066006600C200C300810AE
:104490001818300CC00300000000000000000000ED
:1044A000000000000000000000000000FE0F1818CF
:1044B00018301860186018601860186018301818E4
:1044C000F80F18001800180018001800180018003D
:1044D000180018007E00000000000000000000002E
:1044E000000000000000000000000000C003300CCD
:1044F00018180C100C300C20066006600660066070
:1045000006600660066006600660E4612C331C32BB
:104510001816300EC007004C007C00380000000068
:10452000000000000000000000000000FE07181C52
:10453000183818301830183018301818180CF807B8
:1045400098031803180718061806180E180C180CEC
:10455000181C18187E780000000000000000000001
:10456000000000000000000000000000E0273038DC
:1045700018300C200C200C000C0018007800E00310
:10458000800F001E00380070006004600460086046
:1045900018303818C80F00000000000000000000AC
:1045A000000000000000000000000000FC3F8C2123
:1045B000846182418241800180018001800180010B
:1045C00080018001800180018001800180018001E3
:1045D00080018001E00700000000000000000000F2
:1045E0000000000000000000000000003F7C0C10F4
:1045F0000C100C100C100C100C100C100C100C10DB
:104600000C100C100C100C100C100C100C100C10CA
:1046100008083804E003000000000000000000006B
:104620000000000000000000000000003EF818201C
:10463000182018203010301030103010600860083A
:104640006008E00CC004C004C00480038003800341
:1046500080030001000100000000000000000000D5
:10466000000000000000000000000000DFF3866191
:10467000862186218C210C218C238C138C138C1386
:104680004C1358125816580E380E380E380E300C7F
:1046900010041004100400000000000000000000DE
:1046A0000000000000000000000000007E3E18082E
:1046B00038083004300470026002E001C001C0011B
:1046C000800180034003400720062006100C100CD8
:1046D000081808183E7C00000000000000000000E0
:1046E0000000000000000000000000007E7C1C10A4
:1046F000181018083008300C700460046002C00202
:10470000C002C00180018001800180018001800120
:1047100080018001E00700000000000000000000B0
:10472000000000000000000000000000F83F181822
:104730000818040C040E0006000700038003800123
:10474000C001C000E0006000700030003820182078
:104750001C100C18FE1F00000000000000000000EC
:10476000000000000000C03F40004000400040004A
:104770004000400040004000400040004000400039
:104780004000400040004000400040004000400029
:1047900040004000400040004000C03F00000000DA
:1047A00000000000000000000000080018001800D1
:1047B000100030002000600060004000C000800059
:1047C00080018001000100030002000600060004D1
:1047D000000C000800180018001000300020000035
:1047E000000000000000FC030002000200020002C2
:1047F00000020002000200020002000200020002A9
:104800000002000200020002000200020002000298
:1048100000020002000200020002FC03000000008F
:104820000000000000008007C006200810100000F3
:104830000000000000000000000000000000000078
:104840000000000000000000000000000000000068
:104850000000000000000000000000000000000058
:104860000000000000000000000000000000000048
:104870000000000000000000000000000000000038
:104880000000000000000000000000000000000028
:104890000000000000000000000000000000FFFF1A
:1048A0000000000000007800C000000100000000CF
:1048B00000000000000000000000000000000000F8
:1048C00000000000000000000000000000000000E8
:1048D00000000000000000000000000000000000D8
:1048E00000000000000000000000000000000000C8
:1048F00000000000000000000000F00318060C0C8F
:104900000C0C000C800F700C1C0C0C0C060C060C14
:10491000064C0C4FF83800000000000000000000BA
:104920000000000000000000000010001E00180041
:1049300018001800180018001800180FD818383080
:1049400038601860186018601860186018601820C7
:1049500038307818C8070000000000000000000090
:104960000000000000000000000000000000000047
:1049700000000000000000000000C007700C1818C4
:1049800018180C180C000C000C000C000C2018203F
:1049900018103008C00700000000000000000000F0
:1049A000000000000000000000000010001E0018C1
:1049B00000180018001800180018E01B301C181808
:1049C00018180C180C180C180C180C180C180818BF
:1049D000181C307AE0090000000000000000000010
:1049E00000000000000000000000000000000000C7
:1049F00000000000000000000000C007300C181884
:104A000008100C300C30FC3F0C000C000C0018207F
:104A100018107018C007000000000000000000001F
:104A2000000000000000000000000000003E80C305
:104A300080C0C0C0C000C000C000FC1FC000C000DB
:104A4000C000C000C000C000C000C000C000C00066
:104A5000C000C000F80F00000000000000000000CF
:104A60000000000000000000000000000000000046
:104A700000000000000000000000C077306C10183B
:104A80001818181818181018300CF007180018000B
:104A9000F00FF03F08700C600C600C603838E00FCD
:104AA0000000000000000000000010001E001800C0
:104AB00018001800180018001800980FD81838307F
:104AC00018301830183018301830183018301830A6
:104AD000183018307EFC00000000000000000000CC
:104AE00000000000000000000000000080038003C0
:104AF00080030000000000000001F8018001800137
:104B0000800180018001800180018001800180019D
:104B100080018001F81F000000000000000000007C
:104B20000000000000000000000000000038003815
:104B300000380000000000000010801F001800185E
:104B400000180018001800180018001800180018A5
:104B500000180018001800180018180C1806F003A8
:104B60000000000000000000000010001E001800FF
:104B700018001800180018001800183E180C180625
:104B8000180318019801D801380318071806180CE3
:104B9000181C18187E7C00000000000000000000B7
:104BA000000000000000000000000001F80180018A
:104BB00080018001800180018001800180018001ED
:104BC00080018001800180018001800180018001DD
:104BD00080018001F81F00000000000000000000BC
:104BE00000000000000000000000000000000000C5
:104BF00000000000000000000800EE1C9C338C3117
:104C00008C318C318C318C318C318C318C318C31BC
:104C10008C318C31DE7B00000000000000000000C1
:104C20000000000000000000000000000000000084
:104C3000000000000000000010001E0FD8183830DF
:104C40001830183018301830183018301830183024
:104C5000183018307EFC000000000000000000004A
:104C60000000000000000000000000000000000044
:104C700000000000000000000000C007701C1030A1
:104C800018300C600C600C600C600C600C6018300C
:104C900018303018C00700000000000000000000BD
:104CA0000000000000000000000000000000000004
:104CB000000000000000000010009E0F581838305F
:104CC0001820186018601860186018601860183094
:104CD00038307818980718001800180018007E005F
:104CE00000000000000000000000000000000000C4
:104CF00000000000000000000000C023303C183815
:104D000018300C300C300C300C300C300C300830BB
:104D10001838303CE033003000300030003000FC08
:104D20000000000000000000000000000000000083
:104D3000000000000000000060007E3C60666061D2
:104D4000E000E00060006000600060006000600063
:104D500060006000FE07000000000000000000008E
:104D60000000000000000000000000000000000043
:104D700000000000000000000000E027303818307C
:104D8000182018007000E003800F001C043004306D
:104D90000C301C18EC0F00000000000000000000A8
:104DA0000000000000000000000000000000000003
:104DB000800080008000C000E000FC1FC000C00038
:104DC000C000C000C000C000C000C000C000C020C3
:104DD000C0208011000F0000000000000000000053
:104DE00000000000000000000000000000000000C3
:104DF000000000000000000010201E3C1830183099
:104E00001830183018301830183018301830183062
:104E1000183830F4E013000000000000000000002B
:104E20000000000000000000000000000000000082
:104E3000000000000000000000007E3C1818180868
:104E4000380830043004700260026002E001C001E2
:104E5000C001C00080000000000000000000000051
:104E60000000000000000000000000000000000042
:104E700000000000000000000000DFF78E630C233C
:104E80008C238C239813981358165816700E700E96
:104E9000700E20042004000000000000000000004C
:104EA0000000000000000000000000000000000002
:104EB00000000000000000000000FC3E70087004CC
:104EC000E004C002C0018003800340076006200C9C
:104ED000100C18183E7E00000000000000000000CA
:104EE00000000000000000000000000000000000C2
:104EF000000000000000000000007E7C1818180868
:104F000030083008300460046004C002C002C002EF
:104F10008001800180018000800080004C003C0006
:104F20000000000000000000000000000000000081
:104F300000000000000000000000FC1F0C0C040E2C
:104F40000406000380038001C000E00070203020D0
:104F500038301C18FC1F000000000000000000009A
:104F600000000000000000300008000400040004FD
:104F70000004000400040004000400040004000213
:104F80008001000200040004000400040004000486
:104F900000040004000400040004000800300000C5
:104FA00000010001000100010001000100010001F9
:104FB00000010001000100010001000100010001E9
:104FC00000010001000100010001000100010001D9
:104FD00000010001000100010001000100010001C9
:104FE0000000000000000C00100020002000200045
:104FF0002000200020002000200020002000400091
:10500000800140002000200020002000200020001F
:105010002000200020002000200010000C000000D4
:1050200000003800C400864002610022001C00001D
:105030000000000000000000000000000000000070
:105040000000000000000000000000000000000060
:105050000000000000000000000000000000000050
:1050600008000000102700000000010008000400F4
:105070000000000007100000010000000000000018
:105080000000000000000000000000001000000010
:105090000001000003000000000000003400C441D3
:1050A00008070900020000001F4E00000100000078
:1050B0000000000000000000256420000000000047
:1050C000D050000000002020100A0000280100003D
:04000005000000C136
:00000001FF
